:020000040800F2
:100000000018002081430008AF050008B105000872
:1000100000000000000000000000000000000000E0
:10002000000000000000000000000000B305000810
:100030000000000000000000B5050008B70500083A
:10004000014400080144000801440008014400087C
:10005000014400080144000801440008014400086C
:100060000144000801440008C1050008D10500084A
:1000700001440008E1050008F105000801440008FA
:1000800001440008000000000000000001440008D6
:100090000000000001440008014400080144000879
:1000A0000000000001440008014400080144000869
:1000B0000144000800000000014400080106000897
:1000C0000448054B10B5834203D0044B002B00D0ED
:1000D000984710BD78010020780100200000000042
:1000E00006480749091A8B10C90FC91810B54910DD
:1000F00003D0044B002B00D0984710BD780100209E
:10010000780100200000000010B5074C2378002B78
:1001100009D1FFF7D5FF054B002B02D0044800E0C2
:1001200000BF0123237010BD7801002000000000F3
:1001300004440008054B10B5002B03D004490548C2
:1001400000E000BFFFF7CCFF10BDC046000000007C
:100150007C0100200444000870B50C4D0C4E761B49
:10016000B61005D0002408CD01349847A642FAD134
:1001700004F048F9074D084E761BB61005D0002450
:1001800008CD01349847A642FAD170BDF04400086A
:10019000F0440008F0440008F4440008F0B50500FD
:1001A00083074AD0541E002A44D0CEB20300032253
:1001B00002E00135013C3DD301332E701342F8D1EA
:1001C000032C2FD9FF220A40150215432A04154398
:1001D0000F2C35D92700103F3F093E01B4461E00C1
:1001E0001A0010366644156055609560D56010326F
:1001F000B242F8D10F260C2201373F012640DB190D
:100200003700224217D03E1FB608B400A4461A0099
:100210001C1D644420C2A242FCD103240136B60056
:100220009B193C40002C05D0C9B21C191970013330
:100230009C42FBD1F0BD3400F4E714000300BFE79B
:100240002700E0E7002243088B4274D303098B4266
:100250005FD3030A8B4244D3030B8B4228D3030C96
:100260008B420DD3FF22090212BA030C8B4202D338
:100270001212090265D0030B8B4219D300E0090A60
:10028000C30B8B4201D3CB03C01A5241830B8B4269
:1002900001D38B03C01A5241430B8B4201D34B0352
:1002A000C01A5241030B8B4201D30B03C01A5241B7
:1002B000C30A8B4201D3CB02C01A5241830A8B423C
:1002C00001D38B02C01A5241430A8B4201D34B0225
:1002D000C01A5241030A8B4201D30B02C01A524189
:1002E000CDD2C3098B4201D3CB01C01A524183093D
:1002F0008B4201D38B01C01A524143098B4201D377
:100300004B01C01A524103098B4201D30B01C01AA1
:100310005241C3088B4201D3CB00C01A524183081B
:100320008B4201D38B00C01A524143088B4201D348
:100330004B00C01A5241411A00D2014652411046A8
:100340007047FFE701B5002000F006F802BDC04687
:100350000029F7D076E770477047C04630B589B0BE
:100360001422002103A8FFF719FF194B59698020B7
:100370008002014359615A6902400192019A5A6907
:100380008021C9020A435A615B690B400293029BB8
:10039000104C114D00222100280002F085FF03942B
:1003A00001230493002405940694902003A9C0051A
:1003B00002F0BAFEF8235B0003930494EF3BFF3B8B
:1003C000059303A9280002F0AFFE09B030BDC04676
:1003D00000100240FF8700000004004810B586B0FE
:1003E000164B1A68164B9A4201D006B010BD154B39
:1003F000019302F0A7F9144B00241C605C609C6020
:10040000029403F025F8039480231B050493012331
:10041000059302A903A803F083F8002802D0029BE9
:1004200001330293094B01221A60019B5B68019A18
:10043000126882F308889847FEE7C046FC17002040
:10044000EFBEADDE00C4FF1F10E000E00000014081
:1004500070B500240B2C13D86500144BEA5A902376
:10046000DB055A61012002F04DFE114B1B691B098F
:10047000104AAB52012002F045FE0134E4B2E9E734
:100480000C4B5B89032B00D070BD0A4B9B89032B5F
:10049000FAD1094B094A1A60BFF34F8F084B094A3A
:1004A000DA60BFF34F8FC046FDE7C0460000002072
:1004B00000040048A0010020FC170020EFBEADDEC4
:1004C00000ED00E00400FA0510B598B030220021DC
:1004D0000CA8FFF763FE1022002107A8FFF75EFEBD
:1004E0001822002101A8FFF759FE20230B931F3B80
:1004F000139300240BA802F08BF907230793043B06
:10050000089309940A94012107A802F06DFC802346
:100510009B020193069401A802F008FD18B010BDDB
:10052000F0B5C64600B502F0CBFDFFF757FFFFF769
:10053000CBFFFFF713FFFFF78BFF00F081F80023DD
:10054000984606E0012002F0DDFD45460135EBB29C
:10055000984643460B2BF2D8444666000F4BF25A9E
:100560009023DB055A61012002F0CCFD0C4B1F6982
:100570003F09BFB20B4BF75200210429E2DC0A4EBF
:100580004800825B01231D00A540AA433D000D41A8
:100590002B40A340134333520131EEE7000000200B
:1005A00000040048A001002094010020FEE7FEE7BF
:1005B000FEE77047704710B502F092FD10BD0000D5
:1005C00010B5024802F076FE10BDC046D0010020F2
:1005D00010B5024802F06EFE10BDC04614020020A5
:1005E00010B5024802F0F3FF10BDC04658020020CB
:1005F00010B5024802F0EBFF10BDC04658020020C3
:1006000010B5024801F056FE10BDC0466407002038
:1006100082B00A4B996901221143996199690A4094
:100620000092009ADA69802149050A43DA61DB69A0
:100630000B400193019B02B07047C046001002407E
:1006400010B500220D490E4803F071F800280BD1B7
:100650000C490B4803F087F8002808D1084803F03C
:100660008BF8002806D110BDFFF7A0FFF0E7FFF7D9
:100670009DFFF3E7FFF79AFFF5E7C046180000205B
:10068000A0020020BC00002012230B80004870470D
:100690003400002004230B800048704748000020ED
:1006A00030B500230AE05D0037344C5500015C0092
:1006B00001340C19002525700133DBB2934206D2B8
:1006C000040F092CEFD85D0030344C55EEE730BDF7
:1006D00070B50B4B18680B4B1D680B4B1B68C01893
:1006E000002800D170BD094CA11C0822FFF7D8FFDB
:1006F0002100123104222800FFF7D2FFF2E7C046A2
:10070000ACF7FF1FB0F7FF1FB4F7FF1F4C0000202E
:1007100010B51A230B80FFF7DBFF014810BDC04660
:100720004C00002010B50A00002805D105490648F4
:1007300003F0F5FC034810BD0249034803F0EFFC49
:10074000F8E7C046640500201C44000810B50A0004
:10075000034C2100034803F0E2FC200010BDC0461A
:10076000640500203444000810B50A00002805D1B3
:100770000549064803F0D3FC034810BD024903486D
:1007800003F0CDFCF8E7C046640500203C440008B7
:1007900010B50A00002805D10549064803F0BFFC42
:1007A000034810BD0249034803F0B9FCF8E7C0460E
:1007B0006405002048440008022804D005D8002819
:1007C00000D0022070470120FCE70220FAE710B5B4
:1007D000FFF77AFE10BD000000B583B002680C4B35
:1007E0009A4201D003B000BD0A4AD16980200004BA
:1007F0000143D161D36903400193019B0022002191
:100800001F2002F0ADFD1F2002F0DAFDEAE7C0462E
:10081000005C00400010024010B50100BC239B00AA
:10082000C058403B9C46614402F0C2FF10BD10B569
:100830000300BC22920080588A005218D2009B18F4
:100840007D33FF331A6802F0E5FF10BD10B50300D9
:10085000BC22920080588A005218D2009B18DA6B92
:1008600003F02AF810BD10B5BC239B00C05803F05C
:10087000E5F810BD70B504008368022B09D1BC25D2
:10088000AD000121605903F0BBF8605903F089F80D
:1008900070BDFFF78BFEF2E710B50400BC239B0090
:1008A000C05803F0B1F8A369002B04D0024A1369C1
:1008B00006210B43136110BD00ED00E010B50400EC
:1008C0008369002B05D1BC239B00E05803F0A8F8F6
:1008D00010BD044A136906218B431361FFF777FFAC
:1008E000F1E7C04600ED00E070B504001748BC23F6
:1008F0009B00C450303BE050154B0360082343601D
:10090000063B8360036100238361C361036200F0DF
:100910009BFF002816D1B025AD001823002200212E
:10092000605901F0DBFE582300228021605901F05C
:10093000D5FE605980235B000022812101F0CEFEAC
:10094000002070BDFFF732FEE5E7C04664070020D7
:10095000005C004010B5B0239B00C05800F0E6FFDB
:10096000FFF72AFF10BD10B514001A00B0239B003A
:10097000C058230001F072FDFFF71EFF10BD10B537
:10098000B0239B00C05801F0A8FDFFF715FF10BD74
:1009900010B5B0239B00C05801F02CFEFFF70CFFF0
:1009A00010BD10B5B0239B00C05801F05AFEFFF7F0
:1009B00003FF10BDB0239B00C3584AB2002A09DBD5
:1009C0007F220A4091008918C9005B186B33FF33FE
:1009D000187870477F220A40013291008918C900B7
:1009E0005B189878F5E710B5B0239B00C05801F06C
:1009F0004BFCFFF7E1FE10BD10B5B024A400005978
:100A000001F0CAFDFFF7D8FE10BD10B5B024A40058
:100A1000005901F096FDFFF7CFFE10BD004870476A
:100A2000B80100207047000044230022C252043B5A
:100A3000014AC2520020704780BFFFFF4022835A04
:100A400002490B40835200207047C0467F4000009F
:100A500084B0019102920393402201238352002328
:100A60008352043283520C328352002004B0704708
:100A7000F0B503000D78AD0045192A88B148024051
:100A8000C87802285AD00AD8002853D0012804D1A7
:100A90008020C0000243002009E0012007E0032875
:100AA00004D1C020C0000243002000E00120A64C79
:100AB000224392B22A800A7896009E1935882DB278
:100AC000A24F3D402A4392B21443A4B234800A7B21
:100AD000002A00D090E04A78002A3CD050229C5A4C
:100AE0001C190A78D20012198024E400A44662443A
:100AF000CC886408640014800A7892009A181488DC
:100B0000640606D514883D002540914C2C43A4B2C0
:100B10001480CA78012A13D00A7892009B181A8888
:100B20008C490A4020214A4092B287490A4392B236
:100B30001A804BE08024A4002243B8E70020B6E7E7
:100B40000A7892009B181A88824911407E4A0A430B
:100B500092B21A803AE050255C5B1C190A78D200E8
:100B600012197D4CA4466244CC8864086400148049
:100B70005C5B1C190A78D2001219784CA4466244B6
:100B80000C69002C23D11488754D2C4014801488D6
:100B9000744D2C43A4B214800A7892009A181488D9
:100BA000640406D51488694D25406F4C2C43A4B2CB
:100BB00014800A7892009B1819886C4A1140C02250
:100BC00092015140604A0A4392B21A80F0BD3E2C15
:100BD00007D86508E40700D50135AD02ADB2158030
:100BE000DAE76509E40600D1013DAD02ADB25D4C26
:100BF0002543ADB21580CFE7CA78022A57D00A78CC
:100C000092009A1814885A4D25404F4C2C43A4B298
:100C1000148050255C5B1C190A78D20012198024BC
:100C2000E400A44662440C896408640014805C5BA0
:100C30001C190A78D2001219474CA44662444C8908
:100C40006408640014804A78002A3BD10A78920034
:100C50009A181488640406D514883C4D2540424CEB
:100C60002C43A4B214800A7892009A18148864065F
:100C700006D51488354D2540354C2C43A4B214803C
:100C80000C78A4001C192288384D1540C02292010E
:100C90006A402D4D2A4392B222800A7892009B1816
:100CA0001A882C490A402A4392B21A808EE70A78A1
:100CB00092009A181488254D25402E4C2C43A4B23E
:100CC0001480A6E70A7892009A181488640406D55E
:100CD00014881E4D2540244C2C43A4B214800A785D
:100CE00092009A181488640606D51488174D25407A
:100CF000174C2C43A4B21480CA78012A17D00C7860
:100D0000A4001C192288134D2A4020256A4092B263
:100D10000D4D2A4392B222800A7892009B181A88BD
:100D200012491140084A0A4392B21A804EE70A78E3
:100D300092009A181488074D2540034C2C43A4B206
:100D40001480E9E78F89FFFF8080FFFF8F8FFFFF0F
:100D5000C080FFFFBF8FFFFF0404000006040000F7
:100D6000FF83FFFF0080FFFF80C0FFFF8FBFFFFFFB
:100D70008F8EFFFF8081FFFF10B50B7B002B33D1DF
:100D80004B78002B18D00B789B00C3181A8852069A
:100D900006D51A884E4C14404E4A224392B21A800D
:100DA0000B789B00C01803884B4A1A404B4B1343E7
:100DB0009BB20380002010BD0B789B00C3181A88DB
:100DC000520406D51A88424C1440454A224392B236
:100DD0001A800B789B00C0180388424A1A403F4B88
:100DE00013439BB20380E5E74B78002B37D10B7898
:100DF0009B00C3181A88520406D51A88344C144034
:100E0000374A224392B21A800B789B00C3181A8883
:100E1000520606D51A882E4C14402E4A224392B20E
:100E20001A800B789B00C3181A88294C1440294A51
:100E3000224392B21A800C78A40004192388294A0C
:100E40001340264A13439BB223800B789B00C018A3
:100E5000038821490B401A4392B20280AAE70B781B
:100E60009B00C3181A88520406D51A88184C1440DF
:100E70001B4A224392B21A800B789B00C3181A882F
:100E8000520606D51A88124C1440124A224392B2D6
:100E90001A800B789B00C3181A880D4C1440104A16
:100EA000224392B21A800C78A400041923880A4ABB
:100EB00013400A4A13439BB223800B789B00C0184F
:100EC000038808490B401A4392B2028072E7C04679
:100ED0008F8FFFFFC080FFFFBF8FFFFF8080FFFF6E
:100EE00080C0FFFF8FBFFFFF4B78002B0ED00B7829
:100EF0009B00C01803880C4A1340102253409BB239
:100F00000A4A13439BB20380002070470B789B0072
:100F1000C0180288064B1A4080235B015A40034BDD
:100F200013439BB20380EFE7BF8FFFFF8080FFFF7B
:100F30008FBFFFFF10B50B7B002B3AD14B78002BF6
:100F40001DD00B789B00C3181A88520606D51A8844
:100F5000194C1440194A224392B21A80CB78012BC3
:100F600027D00B789B00C0180388154A1340202215
:100F700053409BB2134A13439BB2038019E00B7892
:100F80009B00C3181A88520406D51A880A4C1440CC
:100F90000D4A224392B21A800B789B00C018028837
:100FA0000A4B1A40C0239B015A40064B13439BB285
:100FB0000380002010BDC0468F8FFFFFC080FFFF61
:100FC000BF8FFFFF8080FFFF80C0FFFF8FBFFFFF4D
:100FD000002902D14C238022C25200207047000019
:100FE0005822835A02490B439BB283520020704718
:100FF0000080FFFF4423C05A80B2704710B5013310
:101000005B0810188022D20094466044002B08D060
:101010000C784A7812022243028002300231013BEE
:10102000F4E710BD70B505000C004A78012A2ED0F7
:101030000B7B002B00D053E28B690A69934200D8E6
:1010400035E29B1A8B615023E95A69182378DB003B
:101050005B18BA498C466344002A00D02BE21A88F8
:10106000B7490A401A801A88B6490A4392B21A80D0
:10107000207880002D182A88B34B1A40C0239B018A
:101080005A40B24B13439BB22B80002070BD8E6937
:1010900009698E4200D90E00237B002B24D0E3780F
:1010A000022B41D0236A9B1B236223789900691885
:1010B0000988490600D4BEE1002A00D0AAE15032D6
:1010C000AA5AAA18DB009B189C4A94466344002E37
:1010D00000D08AE11A889A490A401A801A889949E8
:1010E0000A4392B21A809FE1B6B2E2883300616986
:1010F0002800FFF783FF5023EA5AAA182378DB0061
:101100009B18934A944663441E80207880002D18D3
:101110002B88904A1340302253409BB28B4A134392
:101120009BB22B800020B1E7236A994200D341E1B2
:1011300023789B00EB181A8887491140874A0A4395
:1011400092B21A80236A9B1B236223789A00AA1802
:101150001288520600D48DE06278002A28D15032DD
:10116000AA5AAA18DB009B18744A94466344002EBE
:1011700009D11A8872490A401A801A8871490A43AB
:1011800092B21A8016E03E2E07D87208F10700D5F9
:101190000132920292B21A800CE07209F10600D17B
:1011A000013A920292B267490A4392B21A8001E070
:1011B000012A26D06289B3B261692800FFF71EFFB9
:1011C00063699B196361236A2269934224D99B1B3B
:1011D00023626378002B38D15033EA5AAA18237857
:1011E000DB009B185A4A94466344002E18D11A8893
:1011F00053490A401A801A8852490A4392B21A8007
:1012000025E04F32AA5AAA18DB009B184B4A944695
:101210006344B2B21A80CDE7002222621E00D8E7F2
:101220003E2E07D87208F10700D50132920292B221
:101230001A800CE07209F10600D1013A920292B2D2
:1012400040490A4392B21A8001E0012B06D022895C
:10125000B3B261692800FFF7D1FE56E74F33EA5A6F
:10126000AA182378DB009B18394A94466344B2B22B
:101270001A80ECE76278002A28D15032AA5AAA18BC
:10128000DB009B18324A94466344002E09D11A8829
:101290002B490A401A801A882A490A4392B21A80B6
:1012A00016E03E2E07D87208F10700D501329202EF
:1012B00092B21A800CE07209F10600D1013A920252
:1012C00092B220490A4392B21A8001E0012A26D044
:1012D0002289B3B261692800FFF790FE63699B1908
:1012E0006361236A2269934224D99B1B236263783A
:1012F000002B4AD15033EA5AAA182378DB009B18F6
:101300000E4A94466344002E2AD11A880C490A409A
:101310001A801A880B490A4392B21A8037E04F327A
:10132000AA5AAA18DB009B18094A94466344B2B231
:101330001A80CDE7002222621E00D8E706040000D2
:10134000FF83FFFF0080FFFF8FBFFFFF8080FFFF55
:1013500002040000BF8FFFFF8F8FFFFF8081FFFF20
:101360003E2E07D87208F10700D50132920292B2E0
:101370001A800CE07209F10600D1013A920292B291
:10138000C2490A4392B21A8001E0012B06D0628959
:10139000B3B261692800FFF731FEB6E64F33EA5A6F
:1013A000AA182378DB009B18B94A94466344B2B26A
:1013B0001A80ECE722789200AA181188B5480840F4
:1013C000B549014389B211805022A95A691822787F
:1013D000D2005218B1498C4662449BB213802289D4
:1013E00061692800FFF70AFE8FE63E2E07D87208D3
:1013F000F10700D50132920292B21A8014E072090C
:10140000F10600D1013A920292B2A0490A4392B287
:101410001A8009E05022AA5AAA18DB009B189C4A9D
:1014200094466344B2B21A806289B3B261692800FB
:10143000FFF7E4FD69E6002A28D15032AA5AAA181B
:10144000DB009B18954A94466344002E09D11A8804
:1014500093490A401A801A888C490A4392B21A802A
:101460001EE03E2E07D87208F10700D50132920225
:1014700092B21A8014E07209F10600D1013A920288
:1014800092B282490A4392B21A8009E05022AA5AC3
:10149000AA18DB009B18814A94466344B2B21A80B2
:1014A0002289B3B261692800FFF7A8FD2DE600226A
:1014B0008A611A00C7E53E2A07D85108D20700D52D
:1014C0000131890289B21980D2E55109D20600D1D1
:1014D0000139890289B26D4A114389B21980C7E581
:1014E000CB78022B3AD0012B00D005E18969236922
:1014F000994200D8B1E0C91AA161002A14D1503232
:10150000A95A69182278D200521864498C4662445C
:10151000002B00D0A5E0118861480140118011889E
:101520005A48014389B211806278002A00D0D4E081
:101530005032A95A69182278D200521854498C4660
:101540006244002B00D0B3E0138855490B40138050
:1015500013884E490B439BB2138089E5002A14D1AE
:101560004E33C25A82180B78DB009B184B4A9446C4
:1015700063440A69002A21D11A8849490A401A801D
:101580001A8842490A4392B21A806378002B3FD1ED
:101590005033EA5AAA182378DB009B183C4A944639
:1015A00063442269002A1ED11A883D490A401A80E4
:1015B0001A8836490A4392B21A802BE03E2A07D88D
:1015C0005108D20700D50131890289B21980DCE7C0
:1015D0005109D20600D10139890289B22B4A11433F
:1015E00089B21980D1E73E2A07D85108D20700D521
:1015F0000131890289B219800CE05109D20600D16B
:101600000139890289B2214A114389B2198001E066
:10161000012B16D0E369002B00D129E523789B002C
:10162000EB181A881F490A408A4202D0002A00D0CB
:101630001EE51A881C4911401C4A0A4392B21A80BE
:1016400016E54F33EA5AAA182378DB009B18104A94
:1016500094466344228A1A80DCE70023A3610B00CE
:101660004BE73E2B07D85908D80700D5013189022E
:1016700089B2118058E75909D80600D10139890289
:1016800089B20248014389B211804DE70080FFFF13
:10169000060400008F8EFFFF8080FFFF0204000021
:1016A000FF83FFFF404000008F8FFFFFC080FFFFE0
:1016B0003E2B07D85908DB0700D50131890289B2D2
:1016C0001180D5E45909DB0600D10139890289B2BC
:1016D0000A4B194389B21180CAE4012A00D0C7E439
:1016E0004F32A95A69182278D200521804498C4600
:1016F00062449BB21380BBE40120C7E40080FFFF7B
:101700000604000010B55C0810188022D200944630
:101710006044002C07D0028802300A70120A4A7016
:101720000231013CF5E7DB0701D503880B7010BDE2
:1017300070B553043ED504685023E35A0D78EE008B
:101740009B191B193A4CA44663441C88A405A40D9C
:101750008B69A34224D31B1B8B618B69002B0DD19A
:10176000AD0003689C4665442E88324B1E408023A2
:101770009B015E40304B33439BB22B8053060BD50D
:101780000A78920003689C46624413882B4D1D40E2
:101790002B4B2B439BB21380002C04D1200070BD37
:1017A00000238B61D9E700680A8949692300FFF7A4
:1017B000A9FFF3E704685023E35A0D78EE009B1964
:1017C0001B19204CA44663441C88A405A40D8B69F6
:1017D000A34229D31B1B8B618B69002B0DD1AD005C
:1017E00003689C4665442E88124B1E4080239B0153
:1017F0005E40114B33439BB22B8053060BD40A78C7
:10180000920003689C46624413880C4D1D400C4BAB
:101810002B439BB21380002CC0D000684A894969D1
:101820002300FFF76FFFB9E700238B61D4E7C046C1
:10183000020400008FBFFFFF8080FFFF8F8FFFFF3C
:10184000C080FFFF0604000070B586B0041E69D09A
:10185000354BC35C002B22D0334B0322E25420686B
:10186000FFF7ECF80021606881421FD24D1CAB00ED
:101870005A19D200A218012050705A19D2001155DD
:101880008A005018C0002018C1865B19DB00E318DD
:101890000026DE708663C6630664E9B2E3E7AA2326
:1018A0009B000022C254FEF797FFD5E7002119E004
:1018B0008A005318DB00E3181E006A36FF36002545
:1018C0003570013E3170033635700D3635607D332D
:1018D000FF331D605218D200A2188132FF3215600A
:1018E0000131C9B28842E3D8230010336A4623CBC2
:1018F00023C203CB03C26168A268E3682068FFF7D4
:10190000A7F824230022E254074B0132E254E36992
:10191000012B02D0002006B070BD200000F0FBFEBD
:101920000020F8E70120F6E7A902000070B50400E6
:10193000AA239B00C35C012B0DD0AA25AD00012377
:1019400043550068FFF770F82068FFF749FB002354
:101950006355002070BD0220FCE7000070B5050053
:101960000C001600530600D4ECE002685023D35A52
:101970000978C8001B189B18AB4A944663441A8820
:101980009205920DA369934241D99B1AA361A36961
:10199000002B5AD16378002B3CD12B6850229A5AE5
:1019A0009B18C018A04B9C46604403889F4A134074
:1019B000038003889E4A13439BB203802B6862789E
:1019C000002A34D150329A5A9A182378DB009B1897
:1019D000984A944663441A8894490A401A801A889F
:1019E00093490A4392B21A8021782800FEF72EFF0D
:1019F00073043BD5227892002B689C46624413887E
:101A00008D4919408D4B0B439BB213802EE0002370
:101A1000A361BCE7012BD1D12B6850229A5A9B18A5
:101A2000C018814B9C46604400230380C6E7012A0E
:101A3000DAD14F329A5A9B182278D200D3187D4AB5
:101A40009446634400221A80CEE773040AD58900C5
:101A50002B689C4661440B8877481840774B0343BA
:101A60009BB20B802423E35C012B0FD029682378E1
:101A70009B00C9180B88724A1340302253409BB216
:101A8000704A13439BB20B80002070BD63699B18A2
:101A90006361E3699B18E361216A236999421AD360
:101AA000C91A21626278002A36D12A685021515A17
:101AB00051182278D20052185B498C466244002BA0
:101AC00015D11188594801401180118858480143A7
:101AD00089B2118022E0002903D12423E1541300AC
:101AE000E0E700232422A35423620B00DAE73E2B15
:101AF00007D85908D80700D50131890289B2118069
:101B00000CE05909D80600D10139890289B2484848
:101B1000014389B2118001E0012A06D09BB22289DB
:101B200061692868FFF76AFAA0E72A685021515ACC
:101B300051182278D20052183B498C46624499B21F
:101B40001180EBE702685023D35A0978C8001B18AC
:101B50009B18384A944663441A889205920DA369EB
:101B6000934242D39B1AA361A369002B6CD1637883
:101B7000002B3DD12B6850229A5A9B1818182A4BDB
:101B80009C4660440388294A134003800388284AFE
:101B900013439BB203802B686278002A35D1503200
:101BA0009A5A9B182278D2009B18224A9446634482
:101BB0001A881E490A401A801A881D490A4392B29F
:101BC0001A8021782800FEF741FE730400D54DE706
:101BD000227892002B689C4662441388164919406B
:101BE000164B0B439BB2138040E70023A361BBE776
:101BF000012BD0D12B6850229A5A9B1818180A4BE7
:101C00009C46604400230380C5E7012AD9D14F32A6
:101C10009A5A9B182278D2009B18064A944663442D
:101C200000221A80CDE7C04602040000FF83FFFFB8
:101C30000080FFFF060400008F8FFFFF80C0FFFFC2
:101C4000BF8FFFFF8080FFFF73040AD489002B68D9
:101C50009C4661440B8833481840334B03439BB286
:101C60000B802423E35C012B00D0FFE663699B1803
:101C70006361E3699B18E361216A236999421AD37E
:101C8000C91A21622A686178002935D15031515A28
:101C900052182178C900521824498C466244002BFE
:101CA00015D1118822480140118011882148014333
:101CB00089B2118022E0002903D12423E1541300CA
:101CC000E0E7002323622422A3540B00DAE73E2B33
:101CD00007D85908D80700D50131890289B2118087
:101CE0000CE05909D80600D10139890289B211489E
:101CF000014389B2118001E0012906D09BB26289BB
:101D000061692868FFF77AF9B0E64F31515A5218E5
:101D10002178C900521805498C46624499B2118055
:101D2000ECE7C0468F8FFFFF80C0FFFF0604000076
:101D3000FF83FFFF0080FFFFF8B5CE46474680B522
:101D40000400B6E00388C24A1A40C24B13439BB258
:101D5000038021685023CB5A2822A25CD2009B1812
:101D60005B18BD4A944663441B889B059B0D6364C6
:101D7000E26B94466344E36300212000FEF766FDB6
:101D80002423E35C002B00D193E0236C002B00D0D4
:101D90008FE02422A35C802149420B43DBB2CC318B
:101DA000206843520023A35483E05023C35AB42233
:101DB0005200A25CD2009B181B18A84A94466344A8
:101DC0001B889B059B0D22006932FF32D361AC2139
:101DD00089006118D288FFF795FC22681388A04912
:101DE0000B4080210B439BB213802000FEF714FDB3
:101DF0005FE03E2A07D85108D20700D50131890299
:101E000089B21980B5E05109D20600D101398902A1
:101E100089B2904A114389B21980AAE0AE008019B4
:101E200003889FB21BB2002B00DAAEE03B0640D520
:101E3000681C83001918C9008846A044226894468B
:101E40006644328882491140824A0A4392B2328003
:101E50004346DB78022B00D1BAE1AB005B19DB0013
:101E6000E31800221A647B0600D47FE143465B78C6
:101E7000002B00D066E123685022995A591882003D
:101E80001218D200135DDB005B18734A944663445A
:101E90001A8874490A401A801A886E490A4392B215
:101EA0001A806B1C9D00ED18ED00295D2000FEF7E7
:101EB000CDFC20684423C35A1BB2002B00DBD2E1C7
:101EC0004423C35A99B20F221D0015401342A5D1D5
:101ED000CB0600D436E7028893B2120500D564E73A
:101EE0001BB2002BE5DA03885D4A134080221343BE
:101EF0009BB2038020685023C35AB4225200A25CD4
:101F0000D2009B181B18554A944663441B889B05B6
:101F10009B0D22006932FF32D361002B0FD0516933
:101F200000290CD01500D288FFF7ECFB6B69EA6939
:101F3000944663446B6100212000FEF778FC23681F
:101F40001A881205B5D450229A5A9B18434A9446CF
:101F5000634422006932FF321269002A00D048E748
:101F60001A8840490A401A801A883A490A4392B2AC
:101F70001A8021680A883C4B1A40C0239B015A40B2
:101F80003A4B13439BB20B8093E70388344A1340C8
:101F9000802213439BB203807219D2006932FF3250
:101FA0009046A0447319DB00E3187533FF331B78A8
:101FB000002B5DD120685033C25A7319DB00E3183F
:101FC0006933FF331B78DB00D3181B18234A944670
:101FD00063441B889B059A0D9146002B2AD14B46E2
:101FE000AA005219D200A21810008530FF300168F3
:101FF0004944016011007D31FF31086848440860A0
:102000008132FF321268002A09D0AA005219D20088
:10201000A2187932FF321268934200D38DE0AB00F0
:102020005B19DB00E3186933FF3319782000FEF7F2
:10203000FEFBFBE67319DB00E3181A006F32FF3278
:1020400012887D33FF3319684B46FFF75BFBC6E709
:102050000F8FFFFF0080FFFF020400000604000056
:102060008F0F0000FF83FFFF8FBFFFFF8080FFFF08
:10207000AB005B19DB00E3186C33FF331B78022BDA
:1020800036D0AB005B19DB00E3186933FF331978F6
:1020900089002268944661440A8875481040754A50
:1020A000024392B20A8020681B789A008218128834
:1020B000520424D55022825ADB00D3181B186E4AD2
:1020C000944663441B889B059A0D9146002B00D1D2
:1020D00085E7AB005B19DB00E3181A007132FF32B1
:1020E00012887D33FF3319684B46FFF70BFB76E709
:1020F0003A0041462000FFF71BFB81466FE7502264
:10210000825ADB00D3181B185C4A944663441B8830
:102110009B059A0D9146002B00D160E7AB005B193F
:10212000DB00E3181A007332FF3212887D33FF336D
:1021300019684B46FFF7E6FA51E741462068FEF77B
:1021400071FF73E6012B00D0ABE623685022995A49
:1021500059186B1C9A00D218D200135DDB005B1873
:10216000454A9446634400221A809AE62268691C14
:102170008B005B18DB00E3185B78002B15D1503324
:10218000D35AD2188B005B18DB001B5DDB009B1859
:102190003A4A944663441A8839490A401A801A8890
:1021A00038490A4392B21A807BE6012B00D078E6C8
:1021B0004F33D35AD218691C8B005B18DB001B5DB0
:1021C000DB009A182D4B9C4662440023138068E67E
:1021D000FB0542D420685023C35A6E1CB2009219EA
:1021E000D200125DD2009B181B18234A9446634408
:1021F0001A889205920DAB005B19DB00E3181E6C88
:10220000964215D9AB005B19DB00E318B61A1E64C1
:10221000AB005B19DB00E3181B6C002B0FD16B1CB0
:102220009D00ED18ED00295D2000FEF70FFB40E654
:10223000AB005B19DB00E31800261E64E8E7AB0087
:102240005E19F600A619F16B8F18F763736C9A1874
:1022500072644146FEF7E6FE2BE63A004146200056
:10226000FFF77CFB25E600200CBC90469946F8BDA4
:102270008F8FFFFFC080FFFF0204000006040000F4
:10228000FF83FFFF0080FFFF70B50400AA239B00BF
:10229000C35C012B0CD0AA25AD0001234355233389
:1022A000C1540068FEF794FE00236355002070BD02
:1022B0000220FCE770B504000068FEF79BFE0304F3
:1022C00000D57DE02068FEF795FE430500D57BE054
:1022D0002068FEF78FFE430405D5216844228B5AFF
:1022E000574803408B522068FEF784FE830405D5CF
:1022F000216844228B5A534803408B522068FEF7D2
:1023000079FEC30418D521684023CA5A04208243A9
:10231000CA522168CA5A04308243CA52B8239B0069
:10232000E35C012B5ED02000FEF7C8FA216844224E
:102330008B5A454803408B522068FEF75BFE03052D
:1023400059D42068FEF756FE030628D5216844229A
:102350008B5A802083438B52B8239B00E35C002B75
:1023600060D12168043A8B5A042003439BB28B52FC
:1023700021688B5A082003439BB28B52B8239B00E1
:102380003F3AE25454232268D25A9208183B134031
:10239000B9229200A3500121200000F0D1F9206859
:1023A000FEF728FE830541D42068FEF723FEC3050F
:1023B00005D5216844228B5A244803408B5270BDB6
:1023C0002000FFF7B9FC7DE7216844228B5A2048A2
:1023D00003408B522000FEF74DFA00212000FFF74A
:1023E00053FF75E7B8239B000022E2540021200030
:1023F00000F0A6F997E7216840228B5A0820034392
:102400009BB28B5220684421435A124D2B404352B9
:1024100021688B5A042003439BB28B522000FEF7A5
:102420003BFA8EE72000FEF737FAB8E7216844222E
:102430008B5A094803408B522000FEF714FAB3E789
:10244000FFBFFFFFFFDFFFFFFFEFFFFFFFFEFFFF0D
:10245000FFFBFFFFFFF7FFFFFFFDFFFF70B504006D
:102460000D0049B2002929DB07262E40B000811952
:10247000C9006931FF3161188019C00020186A3025
:10248000FF3000260670072005400D700A61CB70F2
:102490004A78002A00D0CD81022B19D0AA239B00B4
:1024A000E35C012B17D0AA25AD00012363552068FA
:1024B000FEF7DEFA00236355002070BD0720284098
:1024C000461CB0008119C900611801264E70DAE778
:1024D00000230B71E2E70220EFE770B504000A0069
:1024E0004BB2002B21DB0720084083001918C900DC
:1024F0006931FF3161181B18DB00E3186A33FF33C1
:102500000020187007231A400A70AA239B00E35C7E
:10251000012B14D0AA25AD00012363552068FEF7D6
:102520002BFC00236355002070BD07230B40581C73
:1025300083001918C900611801204870E2E70220E1
:10254000F2E7F8B507260E40B400A119C9006931B9
:10255000FF314118A519ED0045192F007D37FF37D0
:102560003A602A008132FF32136004320023136084
:102570006A35FF352B70A419E40004196934FF345F
:102580002670002E04D10068FEF74CFD0020F8BD37
:102590000068FEF747FDF9E7F0B5C64600B5072528
:1025A0000D406F1CBE00F119C90088468044AC0084
:1025B0006419E4000419E26323644C229446A444A1
:1025C0004B3A61460A70A3640023636443465A7021
:1025D000F619F6003554002D07D100684146FEF784
:1025E00021FD002004BC9046F0BD00684146FEF786
:1025F00019FDF6E770B504000B0007220A40416898
:102600008A422AD859B200291FDB9800C118C90094
:102610006931FF316118C318DB00E3186A33FF33F7
:102620000020187001238B700A70AA239B00E35CC2
:10263000012B14D0AA25AD00012363552068FEF7B5
:1026400053FC00236355002070BD501C83001918F3
:10265000C900611801204870E4E70120F4E7022076
:10266000F2E770B504000B000F220A4041688A426D
:1026700030D85AB2002A23DB0720184082001118F4
:10268000C9006931FF3161181218D200A2186A32EC
:10269000FF320020107000228A70073213400B7046
:1026A000AA239B00E35C012B16D0AA25AD000123D1
:1026B00063552068FEF73EFC00236355002070BD83
:1026C00007221A40501C82001118C900611801200D
:1026D0004870E0E70120F2E70220F0E710B50C06B1
:1026E0000CD50724214001318C006118C900401825
:1026F000002A0AD10273C380002010BD8C0061182B
:10270000C9006931FF314018F2E7012202730381E9
:102710001B0C4381F0E70168BA239B000122C250E1
:10272000083B0022C25454328B5A012003439BB20F
:102730008B528B5A022003439BB28B52002070476E
:102740007047000070B500F0D7FC0400284A1368F9
:1027500081210B431360264B1B689B0707D400F0B5
:10276000CBFC001B0228F6D90324200070BD204AB0
:10277000536820490B4053601D4B5B680C221A4282
:1027800007D000F0B9FC001B1B4B9842F4D903247E
:10279000EBE71A4B1A4A1A601A4B186800F068FCEB
:1027A000041E01D00124E0E7114B1A6816490A40C3
:1027B0001A601A6815490A401A6000F09DFC05006D
:1027C0000B4B1B689B0106D500F096FC401B0228B2
:1027D000F6D90324C9E7064B00225A60DA621A636D
:1027E0009A60596A802252040A435A62BDE7C04681
:1027F000001002400CF8FFF0881300006C0000206D
:1028000000127A0068000020FFFFF6FEFFFFFBFFCA
:1028100070B582B0041E00D17FE20368DB072BD5C0
:10282000B34B5A680C231340042B1DD0B04B5A688D
:102830000C231340082B0ED06368012B41D0002BD2
:1028400056D1AB4B1A68AB490A401A601A68AA49BC
:102850000A401A603BE0A64B5B68C022520213405C
:10286000802252029342E7D1A14B1B689B0303D500
:102870006368002B00D153E223689B0777D59C4BFC
:102880005B680C221A4262D0994B5A680C231340A1
:10289000082B53D0E368002B00D18AE0944A1368D8
:1028A00001210B43136000F027FC0500904B1B68CF
:1028B0009B0775D400F020FC401B0228F6D90320AA
:1028C0002CE28B4A116880235B020B431360636820
:1028D000002B25D000F010FC0500854B1B689B03E6
:1028E000CAD400F009FC401B6428F6D9032015E285
:1028F000052B09D07E4B1A687E490A401A601A6877
:102900007D490A401A60E2E7794B19688022D202B9
:102910000A431A601968802252020A431A60D6E7F5
:1029200000F0EAFB0500724B1B689B03A4D500F086
:10293000E3FB401B6428F6D90320EFE16C4B5B6896
:10294000C02252021340802212029342A2D1684B4D
:102950001B689B0703D5E368012B00D0E2E16449C3
:102960000B68F82293432269D20013430B6023685B
:102970001B0744D5E369002B2ED05D4A536A012121
:102980000B43536200F0B8FB0500594B5B6A9B0791
:1029900035D400F0B1FB401B0228F6D90320BDE17D
:1029A00053490B68F82293432269D20013430B600A
:1029B000DDE74F4A136801218B43136000F09CFB55
:1029C00005004B4B1B689B07D1D500F095FB401BC6
:1029D0000228F6D90320A1E1454A536A01218B431D
:1029E000536200F089FB0500414B5B6A9B0706D5EB
:1029F00000F082FB401B0228F6D903208EE12368F9
:102A00005B0700D480E03A4BDB69DB001DD4384A19
:102A1000D169802040050143D161D369034001930E
:102A2000019B0125354B1B68DB0510D5A368012BE5
:102A300021D0002B36D12E4B1A6A01218A431A620B
:102A40001A6A03318A431A621AE00025EAE72B4A20
:102A5000116880235B000B43136000F04DFB060000
:102A6000264B1B68DB05E1D400F046FB801B642885
:102A7000F6D9032052E11E4A136A01210B43136267
:102A8000A368002B24D000F037FB0600184B1B6A0C
:102A90009B0737D400F030FB801B194B9842F5D9C7
:102AA00003203BE1052B09D0114B1A6A01218A430F
:102AB0001A621A6A03318A431A62E1E70C4B1A6AF6
:102AC00004210A431A621A6A03390A431A62D7E7D1
:102AD00000F012FB0600064B1B6A9B0712D500F0A4
:102AE0000BFB801B064B9842F5D9032016E1C0462C
:102AF00000100240FFFFFEFFFFFFFBFF00700040E1
:102B000088130000012D39D02368DB0610D56369D6
:102B1000012B39D0053357D1894A536B04218B439C
:102B20005363536BF4318B43A169C9000B43536367
:102B300023689B066ED5824B5A680C2313400C2BDE
:102B400060D07F4B5A680C231340082B53D0236A64
:102B5000002B7ED07A4A516B80235B020B43536378
:102B600000F0CAFA0500764B5B6BDB0352D400F031
:102B7000C3FA401B0228F6D90320CFE0704AD3697C
:102B800070490B40D361BFE76D4B5A6B04210A4378
:102B90005A635A6B03390A435A6300F0ADFA0500D1
:102BA000674B5B6B9B0706D400F0A6FA401B02281C
:102BB000F6D90320B2E062494B6BF8229343A26935
:102BC000D20013434B63B3E75D4B5A6B04210A43B6
:102BD0005A635A6B03398A435A6300F08DFA050031
:102BE000574B5B6B9B07A3D500F086FA401B02286E
:102BF000F6D9032092E0524B5B68C0225202134088
:102C00009342A4D14E4B5B6BDB0303D5236A012BAC
:102C100000D089E0636A002B00D187E0484A516800
:102C20000C220A40082A60D0022B25D0444A13689F
:102C300045490B40136000F05FFA0400404B1B68ED
:102C40009B0150D500F058FA001B0228F6D903204A
:102C500064E03B4A536B3D490B40536300F04CFA30
:102C60000500374B5B6BDB03D4D500F045FA401B06
:102C70000228F6D9032051E0314A136832490B404B
:102C8000136000F039FA05002D4B1B689B0106D537
:102C900000F032FA401B0228F6D903203EE0284B10
:102CA000DA6A0F218A43216B0A43DA625A6828499B
:102CB0000A40E16AA06A01430A435A601968802207
:102CC00052040A431A6000F017FA04001C4B1B68F8
:102CD0009B0106D400F010FA001B0228F6D903204D
:102CE0001CE000201AE0002018E0012B20D0144B3B
:102CF0005A68D96AC0235B021340A06A834219D183
:102D00000F230B40216B8B4216D1F0239B031A40FB
:102D1000E36A9A4212D1002000E0012002B070BDA7
:102D20000120FBE70120F9E70120F7E70020F5E7A4
:102D30000120F3E70120F1E70120EFE70120EDE7B3
:102D400000100240FFFFFFEFFFFFFFFEFFFFFEFF4F
:102D5000FF7FC2FF10B588B004AA1E4B13CB13C26D
:102D60001B6813606A461C4B13CB13C21B681360AD
:102D70001A4B5A680C231340082B04D00C2B26D175
:102D8000174808B010BD910C0F23194004A8445CEB
:102D90001249C96A0B406946C95CC0235B021A40EC
:102DA00080235B029A4208D0C0235B029A4209D07A
:102DB0000C48FDF747FA6043E3E70A48FDF742FA9B
:102DC0006043DEE70648FDF73DFA6043D9E7054872
:102DD000D7E7C046584400086C4400080010024081
:102DE000006CDC0200127A0070B504000D000028AF
:102DF00000D186E0474B1A68012313408B420AD268
:102E000044490B68012293432B430B600B681A4023
:102E1000AA4200D077E023689A070ED55B0705D554
:102E20003D4A5168E023DB000B4353603A4A536844
:102E3000F0218B43A1680B4353602368DB0735D532
:102E40006368012B09D0022B24D0032B28D0324AEF
:102E50001268920705D4012052E02F4A12689203AB
:102E600053D52D494A680320824313434B6000F039
:102E700043F90600284B5B680C221A4063689B00EC
:102E80009A4213D000F038F9801B244B9842F1D9B4
:102E9000032035E0204A12689201E2D401202FE09D
:102EA0001D4A526BD203DCD4012029E0194B1A6869
:102EB00001231340AB4209D916490B680122934301
:102EC0002B430B600B681A40AA4220D123685B0792
:102ED00006D5114A536812490B40E1680B43536011
:102EE000FFF738FF0C4B5A6812090F2313400D4AA5
:102EF000D35CD8400C4B1860032000F0B9F80020D8
:102F000070BD0120FCE70120FAE70120F8E701206D
:102F1000F6E7C0460020024000100240881300007F
:102F2000FFF8FFFF804400086C00002070B582B0FD
:102F300004000368DB0337D5474BDB69DB005DD456
:102F4000454AD169802040050143D161D3690340DE
:102F50000193019B0125414B1B68DB0550D53E4B7E
:102F60001A6AC0239B00110019401A4213D06268EC
:102F700013408B420FD0384B186A394A02401E6A00
:102F80008021490231431962196A364E3140196273
:102F90001A62C30748D4304A136A31490B4061684A
:102FA0000B431362012D4ED02368DB0706D52A4A56
:102FB000136B03218B43A1680B43136323689B06A8
:102FC00006D5254A136B10218B43E1680B4313632D
:102FD00023689B0306D5204A136B80218B436169CC
:102FE0000B43136323685B0532D51B4A136B4021E7
:102FF0008B4321690B43136300202AE00025AAE7D5
:10300000164A116880235B000B43136000F074F8CC
:103010000600124B1B68DB05A1D400F06DF8801B85
:103020006428F6D9032014E000F066F806000A4B85
:103030001B6A9B07AFD400F05FF8801B0A4B9842D5
:10304000F5D9032005E0D36908490B40D361ABE70C
:10305000002002B070BDC046001002400070004069
:10306000FFFCFFFFFFFFFEFF88130000FFFFFFEFE5
:1030700010B504000F4B1978FA208000FDF7E2F834
:1030800001000D4B1868FDF7DDF800F0A5F90028E8
:103090000DD1032C01D901200AE0013000222100CA
:1030A000404200F05DF9054B1C60002000E001206B
:1030B00010BDC046660000206C00002068000020A3
:1030C00010B5064A136810210B4313600320FFF765
:1030D000CFFFFDF79DFA002010BDC0460020024042
:1030E000034A1168034B1B785B1813607047C04696
:1030F000580A002066000020014B18687047C0463F
:10310000580A002070B50400FFF7F6FF0500631CA5
:1031100002D0044B1B78E418FFF7EEFF401BA042DF
:10312000FAD370BD66000020F0B583B0002357E0ED
:1031300084685F000326BE40B4432600CC68BC40D0
:1031400034438460446894434A681609012232403B
:103150009A402243426053E0DC080834A400265819
:1031600005321A4092000F279740BE430F699740DF
:103170003A003243225057E0022600E00026A640E3
:1031800034003C4302329200424E9451424A146849
:10319000EA432600AE434F68FF0301D52C432600C7
:1031A0003D4C26606468260016404F68BF0301D579
:1031B0002C432600384C6660A468260016404F68F1
:1031C000FF0201D52C432600334CA660E468224060
:1031D0004E68B60201D52A0022432F4CE26001332B
:1031E0000C682200DA4052D001229A402500154096
:1031F0001442F4D003244E683440013C012C97D98A
:1032000003224C682240032A09D0C2685E000324CE
:10321000B440A24314008A68B2402243C260032231
:103220004C682240022A97D004685E0003221700EF
:10323000B740BC434F683A40B24022430260C022CC
:1032400092024C681442CAD0144CA669012216435B
:10325000A661A46922400192019A9A08941CA400D4
:103260000C4EA75903241C40A4000F26A640B743C8
:103270009026F605B04281D0094EB04205D0094EE5
:10328000B04200D178E7052679E7012677E703B059
:10329000F0BDC046000001400004014000100240A3
:1032A0000004004800080048002A01D081617047EE
:1032B0008162FCE770B5C36B1A6804682568016C0D
:1032C00004238B401A4212D06B0710D523689B064B
:1032D00003D42368042293432360C26B0423016C4C
:1032E0008B405360C36A002B00D0984770BD022307
:1032F0008B401A4218D0AB0716D523689B0606D41C
:1033000023680A22934323602123093AC254C26BE3
:103310000223016C8B40536020230022C254836A35
:10332000002BE3D09847E1E708238B401A42DDD019
:103330002B07DBD523680E2293432360C26B012346
:103340001900046CA14051608363212283541F3310
:103350000022C254036B002BC8D09847C6E7000078
:1033600070B5002811DB8308134EC0339B009D59B4
:1033700003242040C000FF2214008440A54389019B
:103380000A4082402A439A5170BD0F230340083BF4
:103390009B0806339B00094A944663445C680322F9
:1033A0001040C000FC3215008540AC4389010A4042
:1033B000824022435A60E7E700E100E000ED00E0D0
:1033C000002805DB1F2318401E3B8340014A136081
:1033D0007047C04600E100E0013880235B0498425A
:1033E0000FD2094A50600948036A1B021B0AC02118
:1033F00009060B4303620023936007331360002028
:1034000070470120FCE7C04610E000E000ED00E05E
:103410000D4BDA6810210B001340114205D00B4A06
:10342000D3690E390B43D3611023074AD268520780
:1034300006D50649CA6901200243CA610422134322
:10344000014AD3607047C04600200240600A002055
:10345000084B1B691B0609D5064B074A5A60074AE9
:103460005A601B691B0603D4002000E0002070474F
:103470000120FCE70020024023016745AB89EFCD26
:1034800070B50400FFF738FE0500124BDB68DB0760
:103490000AD5631CF9D0002C04D0FFF72DFE401B89
:1034A000A042F2D903200FE00A4BDB689B0602D54D
:1034B000084B2022DA60074BDB68DB0605D4054B9E
:1034C000DB685B0701D4002070BDFFF7A1FF01207E
:1034D000FAE7C04600200240064B0022DA61064BA4
:1034E0001A6904210A431A611A693C310A431A61B4
:1034F0007047C046600A002000200240064B0022B0
:10350000DA61064B1A6902210A431A6158611A6985
:103510003E310A431A617047600A002000200240D1
:1035200070B505000E00244B1B7E012B41D0224BB1
:1035300001221A760368012B22D02048FFF7A0FF52
:10354000002831D101235B4233606C680130AB68E5
:103550009B026A6894466344A34226D92000FFF781
:10356000CDFF1648FFF78CFF154A136902218B43E4
:103570001361002816D18023DB009C466444E6E7F3
:103580000E48FFF77DFF002801D001200DE0FFF776
:10359000A3FF0A48FFF774FF094A136904218B430C
:1035A000136102E0346000E00120034B00221A7630
:1035B00070BD0220FCE7C046600A002050C3000036
:1035C000002002407047704770477047704710B541
:1035D000040003681A6992070FD5DA6892070CD5C0
:1035E000032252421A610123037703689B699B07F8
:1035F00063D0FFF7E9FF0023237723681A69520796
:1036000012D5DA6852070FD5052252421A610223F9
:10361000237723689A69C0239B001A4253D0200065
:10362000FFF7D2FF0023237723681A69120710D50A
:10363000DA6812070DD5092252421A610423237752
:103640002368DB699B0745D02000FFF7BDFF0023FF
:10365000237723681A69D20612D5DA68D2060FD505
:10366000112252421A61082323772368DA69C023A2
:103670009B001A4235D02000FFF7A6FF00232377D6
:1036800023681A69D20702D5DA68D20730D42368D2
:103690001A69120602D5DA68120630D423681A694C
:1036A000520602D5DA68520630D423681A699206A7
:1036B00002D5DA68920630D410BDFFF784FF2000EF
:1036C000FFF783FF97E72000FFF77DFF2000FFF75C
:1036D0007CFFA7E72000FFF776FF2000FFF775FFCC
:1036E000B5E72000FFF76FFF2000FFF76EFFC5E78B
:1036F000022252421A612000FFF764FFC7E78122CD
:1037000052421A61200000F010F8C7E741225242ED
:103710001A612000FFF75AFFC7E7212252421A61BF
:10372000200000F001F8C7E770477047704710B5F8
:10373000002816D0AD239B00C358002B03D0AD2327
:103740009B000024C450002902D0AC239B00C15030
:10375000A7239B000121C1540270FDF7C5F800208A
:1037600010BD0220FCE7002904D0AD239B00C1500E
:10377000002070470220FCE710B5FDF7EBF80020B1
:1037800010BD10B5AD239B00C358002B06D01B689D
:103790009847002800D110BD0220FCE70220FAE77C
:1037A00010B5AD239B00C3585B689847002010BD3F
:1037B00070B50400AA239B00C518280000F064F926
:1037C000A5239B000122E250114BE25A163BE25026
:1037D0001033E15C1F230B40012B0FD0022B12D0C2
:1037E000002B05D07F2399432000FDF7D1F803E09B
:1037F0002900200000F022FB002070BD29002000DD
:1038000000F052FBF8E72900200000F080FBF3E70E
:10381000AE02000070B505000C001100002C38D17C
:10382000A5239B00C358032B03D0052B28D02000D1
:103830003DE002005532FF32D368126993420DD940
:103840009B1A5530FF30C3609A4205D99AB22800BE
:1038500000F098FC20002AE092B2F8E7AD239B002C
:10386000C3581B69002B04D0A7229200825C032A54
:1038700004D0280000F08EFC200018E09847F8E7FC
:10388000A5239B000022C2500021FDF781F82000F3
:103890000DE0AD239B00C3589B69002B08D0A722E5
:1038A0009200825C032A05D121009847002070BD58
:1038B0000220FCE70220FAE7F8B505000C00110031
:1038C000002C5BD1A5239B00C358022B0ED0042BE8
:1038D00001D0002B03D180212800FDF759F8A8233F
:1038E0009B00EB5C012B43D02000F8BD026A466AC6
:1038F000B24220D8C76931003800FCF729FD002901
:1039000006D1BE4204D8A6239B00EB589F421ED38B
:10391000AD239B00EB58DB68002B04D0A72292005C
:10392000AA5C032A21D080212800FDF731F8280065
:1039300000F03CFCD3E7921B026292B200F01AFC4A
:103940000023002200212800FDF75FF8C7E70022CE
:10395000280000F00FFCA6239B000022EA50002361
:1039600000212800FDF751F8B9E728009847DAE769
:10397000A8239B000022EA542000B6E7AD239B0059
:10398000C3585B69002B08D0A7229200825C032AEF
:1039900005D1210098470020A7E70220A5E70220D3
:1039A000A3E770B50400402300220021FCF7DBFFF1
:1039B0000125AC235B00E55040260C33E650253B47
:1039C000FF3B002280212000FCF7CDFFA56166624D
:1039D000A7239B00E5540023A5229200A350636017
:1039E0001032A350AE239B00E358002B06D0AD232A
:1039F0009B00E3585B68002120009847002070BDC1
:103A00000174002070470000A7239B00C15C034A9B
:103A100081540422C25400207047C0469D02000019
:103A2000A7239B00C35C042B01D000207047024BEE
:103A3000C25C013BC254F8E79D02000010B5A72309
:103A40009B00C35C032B01D0002010BDAD239B0065
:103A5000C358DB69002BF7D09847F5E70300002037
:103A60001A78002A03D00130C0B20133F8E770475A
:103A700010B54B88012B00D010BDA9239B0001225B
:103A8000C25000F087FBF7E70B7803704B78437068
:103A90008B78CA7812029B1843800B794A791202FC
:103AA0009B1883808B79CA7912029B18C380704758
:103AB00010B504008021FCF76BFF00212000FCF70B
:103AC00067FF10BD30B583B005000C006B460022C7
:103AD000DA804A88130A072B00D9B6E09B006549B3
:103AE000CB589F46AC239B00C3581B68007C6A469A
:103AF000911D98476B4606331B88002B03D0E28844
:103B0000002A00D0A6E0E388002B00D1AEE003B08D
:103B100030BD037C002B09D1AD239B00C3589B6AA9
:103B20006A46901D984702234370E3E7AD239B004C
:103B3000C358DB6A6A46901D984702234370D9E751
:103B4000D2B2052A5DD892004B4B9B589F46AC23BE
:103B50009B00C3585B68002B04D0007C6A46911D13
:103B60009847C7E72100FFF7A3FFD0E7AC239B00EE
:103B7000C3589B68002B04D0007C6A46911D98476F
:103B8000B8E72100FFF794FFC1E7AC239B00C358BF
:103B9000DB68002B04D0007C6A46911D9847A9E79A
:103BA0002100FFF785FFB2E7AC239B00C3581B69D8
:103BB000002B04D0007C6A46911D98479AE72100AB
:103BC000FFF776FFA3E7AC239B00C3585B69002B8C
:103BD00004D0007C6A46911D98478BE72100FFF7CF
:103BE00067FF94E7AC239B00C3589B69002B04D06C
:103BF000007C6A46911D98477CE72100FFF758FF3B
:103C000085E72100FFF754FF81E7037C002B07D1F4
:103C1000AD239B00C3585B6B6A46901D984769E7CC
:103C20002100FFF745FF72E7037C002B09D1AD238C
:103C30009B00C3581B6B6A46901D9847072343702F
:103C400058E72100FFF734FF61E721002800FFF764
:103C50002FFF5CE7191C934200D9111C8AB26B46F6
:103C6000D9800100280000F077FA4CE7280000F026
:103C700091FA4CE790440008B044000870B5040085
:103C80008B88002B23D1CB88002B20D14B887F2B16
:103C90001DD87F251D40A7239B00C35C032B0ED09E
:103CA0000D4BC5542900FCF79EFE200000F072FA6F
:103CB000002D07D0A7239B000222E2540AE0FFF761
:103CC000F7FE07E0A7239B000122E25402E0200058
:103CD000FFF7EEFE70BDC0469E02000070B5040006
:103CE0000D0089782A4B197001290FD8A7239B0052
:103CF000C35C022B0ED0032B23D02900FFF7D8FE84
:103D0000234B19782000FFF74BFD02E02900FFF755
:103D1000CFFE70BD002911D04160A7239B00032274
:103D2000C254FFF72EFD022803D0200000F032FA23
:103D3000EFE729002000FFF7BBFEEAE700F02AFAD0
:103D4000E7E7002911D0436899421ED0D9B2FFF7A6
:103D500027FD0F4B197861602000FFF712FD022844
:103D60000ED0200000F016FAD3E7A7239B00022212
:103D7000C2544160FFF714FD200000F00BFAC8E7C1
:103D800029002000FFF794FEC3E700F003FAC0E724
:103D9000CC01002010B5CB88012B0BD1A7239B00B1
:103DA000C35C022B09D9032B09D1011D012200F0AC
:103DB000D3F901E0FFF77CFE10BD002B02D1FFF725
:103DC00077FEF9E70023836001000831012200F04B
:103DD000C3F9F1E710B5A7239B00C35C013B022B9D
:103DE00014D8CB88022B0ED10123C360A9239B00DA
:103DF000C358002B01D00323C36001000C31022201
:103E000000F0AAF910BDFFF753FEFBE7FFF750FEE5
:103E1000F8E710B5A7239B00C35C013B022B0AD82F
:103E20004B88012B00D010BDA9239B000022C2505B
:103E300000F0B0F9F7E7FFF73BFEF4E710B50A78BA
:103E400060231340202B06D0402B04D0002B09D038
:103E5000FFF72EFE04E0AD239B00C3589B689847F4
:103E6000002010BD4B78092B18D89B000D4AD35861
:103E70009F46FFF727FEF3E7FFF700FFF0E7FFF7A6
:103E80002DFFEDE7FFF786FFEAE7FFF7A3FFE7E780
:103E9000FFF7EEFDE4E7FFF7BCFFE1E7FFF708FE01
:103EA000DEE7C046C844000870B505000C000A787B
:103EB00060231340202B07D0402B05D0002B03D0CC
:103EC000FFF7F6FD002070BDA7239B00EB5C013BD4
:103ED000022B17D82379012B0FD8AD239B00EB5869
:103EE0009B68210028009847E388002BEAD100282E
:103EF000E8D1280000F04EF9E4E721002800FFF7A0
:103F0000D7FDDFE721002800FFF7D2FDDAE770B523
:103F1000050088880A790B7860241C40202C08D082
:103F2000402C06D0002C0DD02800FFF7C1FD002446
:103F300006E0AD239B00EB589B68280098470024BF
:103F4000200070BD202C0AD04E78012E3ED0032ECA
:103F50000DD0002E64D02800FFF7AAFDF0E7AD23B6
:103F60009B00EB589B68280098470400E8E7A723CC
:103F70009B00EB5C022B05D0032B14D02800FFF72D
:103F800097FDDDE7002A01D0802A03D12800FFF742
:103F90008FFDD5E711002800FCF7FAFC80212800EE
:103FA000FCF7F6FCCCE74B88002B06D1002A04D0A6
:103FB000802A02D0CB88002B03D0280000F0EAF83A
:103FC000BEE711002800FCF7E3FCF6E7A7239B00FF
:103FD000EB5C022B05D0032B14D02800FFF768FD03
:103FE000AEE7002A01D0802A03D12800FFF760FD48
:103FF000A6E711002800FCF7CBFC80212800FCF785
:10400000C7FC9DE74B88002B9AD1530603D12800AB
:1040100000F0C0F894E711002800FCF7C2FCF6E7B6
:10402000A7239B00EB5C022B06D0032B29D0280092
:10403000FFF73EFD340083E7002A01D0802A12D129
:10404000030615D47F210A40910089188900513157
:10405000FF316918043100230B600222280000F0B0
:104060007BF834006CE72800FFF722FD340067E797
:104070007F210A40910089188900103169180431A4
:10408000E9E744B2030622D40F20104083001B1836
:104090009B00EB185933FF331B68002B25D0002CF5
:1040A00028DB7F2313409C00E418A4005134FF3424
:1040B0002C190434002A01D0802A24D10023236043
:1040C00002222100280000F047F8340038E70F20D2
:1040D000104083001B189B00EB189B69002BDED15E
:1040E0002800FFF7E5FC34002AE72800FFF7E0FC92
:1040F000340025E77F2313409C00E418A40010340B
:104100002C190434D6E711002800FCF753FC0028D2
:1041100002D001232360D3E700232360D0E770B5EA
:1041200004000D001600002815D0FFF797FC0130A1
:1041300040003080287003236B70013B08E001349D
:104140005A1CD2B2E8540233DBB2AA180021117013
:1041500020780028F3D170BD10B51300A52292007D
:1041600002248450C36103620A000021FCF744FC6E
:10417000002010BD10B513000A000021FCF73CFC24
:10418000002010BD10B513000A000021FCF73DFC13
:10419000002010BD10B5A5239B000422C2500023AF
:1041A00000220021FCF728FC002010BD10B5A5233B
:1041B0009B000522C250002300220021FCF725FCB1
:1041C000002010BD2223038000487047F400002027
:1041D0002223038000487047180100202223038017
:1041E0000048704754010020AE239B00C3580022B2
:1041F0001A730020704700000A23038000487047AC
:104200004801002070B582B0AE239B00C6586B46B3
:104210000022DA800B78603215001D401A4224D04B
:10422000202D77D14B780A2B10D009D8022B12D031
:10423000032B16D101223100FFF78EFF00256CE021
:104240000B2B0ED18B783360002566E04B881B0A60
:104250007360002561E0311D0122FFF77DFF00251D
:104260005BE0FFF725FC022557E04C780A2C3AD09A
:1042700013D8002C1BD0062C48D14B881B0A222BAC
:1042800025D0212B2BD1CB881A1C092B00D9092230
:1042900092B22349FFF760FF3FE00B2C36D1A723F2
:1042A0009B00C35C032B2DD18B78B36035E0A72333
:1042B0009B00C35C032B03D0FFF7FAFB02252CE025
:1042C00002226B46991DFFF747FF250025E0CB88AA
:1042D0001A1C4A2B00D94A2292B21249DAE7FFF798
:1042E000E7FB022519E0A7239B00C35C032B03D047
:1042F000FFF7DEFB022510E0310008310122FFF755
:104300002BFF0AE0FFF7D4FB022506E0FFF7D0FB06
:10431000022502E0FFF7CCFB0225280002B070BDA9
:104320003C0100207000002010B504008121FCF742
:1043300026FB0023E362AE239B00E058002805D053
:10434000FCF770FBAE239B000022E250002010BD62
:1043500010B50400042303228121FCF704FB012390
:10436000E3621020FCF75AFBAE239B00E0500028CC
:1043700003D000230373002010BD0220FCE70000DF
:104380001348854613480168090E134A914205D126
:104390001248134901601348134901601348144936
:1043A000144A002302E0D458C4500433C4188C4289
:1043B000F9D3114A114C002301E013600432A242E8
:1043C000FBD3FFF7B3F9FBF7C7FEFCF7A9F8FEE74D
:1043D00000180020040000001F0000001810024018
:1043E000010000000000014000000000000000206B
:1043F00078010020F844000878010020800A00209D
:10440000FEE70000F8B5C046F8BC08BC9E46704701
:0C441000F8B5C046F8BC08BC9E467047DA
:10441C006F7274686F6C696E656172206B6579621E
:10442C006F617264000000006E79616E74656300E8
:10443C0048494420436F6E66696700004849442030
:10444C00496E7465726661636500000002030405C1
:10445C00060708090A0B0C0D0E0F101000000000C7
:10446C000102030405060708090A0B0C0D0E0F10B8
:10447C000000000000000000000000000102030426
:10448C00060708094A3C0008E43A0008123B0008F9
:10449C00403B00084A3C00084A3C00080A3C000823
:1044AC00283C00084E3B00086C3B00088A3B000887
:1044BC00A83B0008C63B0008E43B00088A3E000805
:1044CC00963E00089C3E0008903E00089C3E00086A
:1044DC00783E0008723E00089C3E0008843E0008AE
:0444EC007E3E000808
:0444F000350100088A
:0444F40009010008B2
:1044F80020001000080004000200010000800004F1
:1045080000020001800040008906000895060008A6
:104518004D0700082507000811070008690700086B
:10452800910700081201000200000040FF332540F7
:104538000002010203010000040307041A0300003B
:104548000000000000000000000000000000000063
:1045580000000000000001000400000000127A00C2
:1045680005010902A1010901A10005091901290391
:1045780015002501950375018102950175058101D5
:1045880005010930093109381581257F750895031A
:104598008106C0093C05FF09011500250175019533
:1045A80002B12275069501B101C00000514300080F
:1045B8002943000805420008000000000000000030
:1045C800E9410008000000000000000000000000B1
:1045D80000000000D1410008C5410008DD41000885
:1045E800F941000809022200010100E03209040033
:1045F800000103010200092111010001224A0007FC
:1046080005810304000A000009022200010100E0FC
:10461800320904000001030102000921110100010F
:10462800224A00070581030400070000092111013F
:104638000001224A000000000A06000200000040B3
:104648000100000009022200010100E03209040013
:10465800000103010200092111010001224A00079B
:0846680005810304000A0000B3
:04000005080043812B
:00000001FF
