:020000040800F2
:1000000000400020593A0008090700080B070008C3
:1000100000000000000000000000000000000000E0
:100020000000000000000000000000000D070008B4
:1000300000000000000000000F0700081107000882
:10004000A93A0008A93A0008A93A0008A93A000804
:10005000A93A0008A93A0008A93A0008A93A0008F4
:10006000A93A000819070008A93A0008A93A0008A7
:10007000A93A0008A93A0008A93A0008A93A0008D4
:10008000A93A0008A93A0008A93A0008A93A0008C4
:10009000A93A0008A93A0008A93A0008A93A0008B4
:1000A000A93A0008A93A0008A93A0008A93A0008A4
:1000B000A93A0008A93A0008A93A00082907000847
:1000C00010B5064C2378002B07D1054B002B02D02E
:1000D000044800E000BF0123237010BD640100202C
:1000E00000000000D43C0008044B10B5002B03D0E6
:1000F0000349044800E000BF10BDC04600000000F6
:1001000068010020D43C0008002243088B4274D3CD
:1001100003098B425FD3030A8B4244D3030B8B4208
:1001200028D3030C8B420DD3FF22090212BA030C11
:100130008B4202D31212090265D0030B8B4219D3F2
:1001400000E0090AC30B8B4201D3CB03C01A524112
:10015000830B8B4201D38B03C01A5241430B8B425A
:1001600001D34B03C01A5241030B8B4201D30B0343
:10017000C01A5241C30A8B4201D3CB02C01A52416A
:10018000830A8B4201D38B02C01A5241430A8B422D
:1001900001D34B02C01A5241030A8B4201D30B0216
:1001A000C01A5241CDD2C3098B4201D3CB01C01A30
:1001B000524183098B4201D38B01C01A524143093A
:1001C0008B4201D34B01C01A524103098B4201D328
:1001D0000B01C01A5241C3088B4201D3CB00C01A95
:1001E000524183088B4201D38B00C01A524143080D
:1001F0008B4201D34B00C01A5241411A00D2014632
:10020000524110467047FFE701B5002000F006F8A4
:1002100002BDC0460029F7D076E770477047C04658
:1002200030B589B01422002103A803F080FC134BE1
:1002300059698020C002014359615A690240019204
:10024000019A5A69802189020A435A615B690B400D
:100250000293029B8025AD01094C00222900200059
:1002600001F020FF039501230493002305930693D7
:1002700003A9200001F04AFE09B030BD0010024081
:100280000004004800B583B0094A516901231943AD
:100290005161526913400193019B00220021092002
:1002A00001F0E8FF092002F017F803B000BDC046D6
:1002B00000100240F0B585B00C22002101A803F027
:1002C00036FC264C264B236000236360A360E3606A
:1002D000012525610826666123766376A576E37697
:1002E000C222FF32E26123622433E554A56220007A
:1002F00000F074FF80235B010293062703970195AA
:1003000001A9200001F0CAF80223019301A92000ED
:1003100001F0C4F80323019301A9200001F0BEF805
:100320000423019301A9200001F0B8F805230193EB
:1003300001A9200001F0B2F8019701A9200001F005
:10034000ADF80723019301A9200001F0A7F8019659
:1003500001A9200001F0A2F805B0F0BD840400203E
:100360000024014010B51B4B1B68002B05D08028D2
:1003700001D98038C0B2184B185C184B01221A7092
:100380007E320240DA7000221A71030604D5134A45
:10039000537802210B435370002408E009220F49CF
:1003A0000F4802F0D2FE0A2001F09EFD0134032C1A
:1003B000F4DD0C4C06220021200003F0B8FBE11E06
:1003C00000234B700922064802F0BFFE0A2001F00C
:1003D0008BFD10BD000000200C3D0008B001002086
:1003E000C8040020B301002010B5174B01221A7079
:1003F0007E320240DA7000221A7140B2002801DB1E
:1004000000240EE01A005B7802210B435370F7E7DB
:1004100009220D490D4802F098FE0A2001F064FD02
:100420000134032CF4DD0A4C06220021200003F0E5
:100430007EFBE11E00234B700922044802F085FE7A
:100440000A2001F051FD10BDB0010020C8040020B9
:10045000B3010020F0B583B001AC02272770E92377
:1004600063700025A570094E03222100300002F0C0
:100470006CFE0A2001F038FD27706570A57003221C
:100480002100300002F061FE03B0F0BDC80400207E
:10049000F0B583B001AC02272770EA236370002512
:1004A000A570094E03222100300002F04EFE0A2002
:1004B00001F01AFD27706570A5700322210030003D
:1004C00002F043FE03B0F0BDC804002010B598B0A0
:1004D000302200210CA803F02AFB1022002107A8DB
:1004E00003F025FB1C220021684603F020FB30238B
:1004F0000B932F3B139310930F3311930BA801F021
:1005000073F807230793043B0893002409940A9483
:10051000012107A801F052FB80239B02009306945F
:10052000684601F0EBFB18B010BD000010B501F0FB
:10053000B9FCFFF7CBFFFFF773FEFFF7A3FEFFF752
:10054000B9FE02F091FB08225F49604800F004FF09
:100550005AE053005E4819520132072A0FDC53005B
:100560005949595A5B48195259481B5ACC1AFA2012
:10057000C0008442EDDC5B1A8342EDDDE9E7554BB8
:100580001A88534B1B881900C8318A423EDAC83B8F
:100590009A4242DD4F4B9A884D4B9B881900C831D7
:1005A0008A4241DAC83B9A4246DD4A4BDA88484BD8
:1005B000DB881900C8318A4246DAC83B9A424BDDD3
:1005C000444B1A89424B1B891900C8318A424BDAC5
:1005D000C83B9A4250DD3F4B9A893D4B9B8919009D
:1005E000C8318A4250DAC83B9A4255DD394BDA8924
:1005F000374BDB891900C8318A4255DAC83B9A4229
:100600005ADD0A2001F070FC0022A6E7FFF722FF66
:10061000304B1A882E4B1A80BCE7FFF739FF2D4B61
:100620001A882B4B1A80B5E77620FFF79BFE294BE3
:100630009A88274B9A80B8E77620FFF793FE254BE0
:100640009A88234B9A80B0E75220FFF78BFE214B0C
:10065000DA881F4BDA80B3E77220FFF783FE1D4B69
:10066000DA881B4BDA80ABE76E20FFF77BFE194B75
:100670001A89174B1A81AEE74E20FFF773FE154B10
:100680001A89134B1A81A6E77720FFF76BFE114BEF
:100690009A890F4B9A81A9E75720FFF763FE0D4B0C
:1006A0009A890B4B9A81A1E73A20FFF79DFE094BEF
:1006B000DA89074BDA81A4E73B20FFF795FE054B6B
:1006C000DA89034BDA819CE7900100208404002042
:1006D000A00100207404002070B58025AD01094CF4
:1006E00001222900200001F0DDFC642001F0FCFB68
:1006F00000222900200001F0D5FC642001F0F4FB69
:10070000EBE7C046000400487047FEE770477047BB
:1007100010B501F0D7FB10BD10B5024801F055FD32
:1007200010BDC046BC01002010B5024802F01EF901
:1007300010BDC0460002002082B00A4B9969012218
:100740001143996199690A400092009ADA698021FF
:1007500049050A43DA61DB690B400193019B02B052
:100760007047C0460010024030B589B00400142222
:10077000002103A803F0DBF9274B22689A4201D03D
:1007800009B030BD254B99698020800001439961F3
:100790009A6902400092009A5969802080020143C0
:1007A00059615A6902400192019A5A698021C9022D
:1007B0000A435A615B690B400293029BFF23039338
:1007C00003250495902003A9C00501F09FFB012398
:1007D000039304950025059503A9114801F096FBA4
:1007E0001048114B0360456085608023C3608033EF
:1007F00003618023DB0043612023836180235B014D
:10080000C36101F07FFC002803D1064B23635C62C7
:10081000B6E7FFF761FFF8E700240140001002404F
:1008200000040048BC010020080002404022835A16
:1008300002490B439BB283520020704780BFFFFFE9
:100840004022835A02490B40835200207047C04621
:100850007F40000084B010B50391049205934022BC
:100860000123835200238352043283520C32835279
:10087000FFF7DCFF002010BC08BC04B018470000E4
:10088000F0B50D78AD0045192B88B14A1340CA78F0
:10089000012A54D0002A48D0022A03D0032A49D082
:1008A000012400E00024AB4A13439BB22B800B7859
:1008B0009E00861935882DB2A74F3D402B439BB231
:1008C0001A4392B232800B7B002B00D094E04B781D
:1008D000002B44D05023C25A82180B78DB009B189F
:1008E0008022D20094466344CA88520852001A807B
:1008F0000B789B00C3181A88520606D51A883D004B
:100900001540964A2A4392B21A80CB78012B1BD00D
:100910000B789B00C0180388914A134020225A404C
:100920008C4B13439BB2038051E08022920013430F
:100930000024B8E7C022D20013430024B3E780228A
:10094000D20013430024AEE70B789B00C018038845
:10095000834A1A407F4B13439BB2038037E05025F4
:10096000425B82180B78DB009B187E4A94466344F6
:10097000CA88520852001A80425B82180B78DB004A
:100980009B18794A944663440A69002A21D11A883F
:10099000764D1540764A2A431A800B789B00C3187F
:1009A0001A88520406D51A886B4D1540714A2A439D
:1009B00092B21A800B789B00C01802886E4B1A40C6
:1009C000C0239B015A40634B13439BB2038020001A
:1009D000F0BD3E2A06D85508D20700D50135AD0234
:1009E0001D80DAE75509D20600D1013DAD02ADB256
:1009F0005F4A15431D80D0E70B789B00C3181A8807
:100A0000554D15405D4A2A4392B21A805025425BEB
:100A100082180B78DB009B188022D2009446634436
:100A20000A89520852001A80425B82180B78DB0058
:100A30009B184C4A944663444A89520852001A80D3
:100A40004B78002B3AD10B789B00C3181A885204BC
:100A500006D51A88404D1540464A2A4392B21A805C
:100A60000B789B00C3181A88520606D51A883A4D8F
:100A700015403A4A2A4392B21A800B789B00C31859
:100A80001A88354D1540354A2A4392B21A800A78A1
:100A9000920082181388384D1D40C0239B016B4083
:100AA0002C4D2B439BB213800B789B00C0180388FE
:100AB0002B4A13402B439BB2038088E70B789B00A3
:100AC000C3181A88520406D51A88234D1540294A9E
:100AD0002A4392B21A800B789B00C3181A885206D8
:100AE00006D51A881C4D15401C4A2A4392B21A801A
:100AF0000B789B00C3181A88174D15401D4A2A43CE
:100B000092B21A80CB78012B16D00B789B00C318B9
:100B10001A88134D2A40202555400E4A2A4392B286
:100B20001A800B789B00C3181A8813491140094A90
:100B30000A4392B21A804AE70B789B00C3181A88BE
:100B4000074D1540034A2A4392B21A80E9E7C0468E
:100B50008F89FFFF8080FFFF8F8FFFFFC080FFFF27
:100B6000BF8FFFFF0404000006040000FF83FFFFA7
:100B70000080FFFF80C0FFFF8FBFFFFF8081FFFF6E
:100B800010B50B7B002B33D14B78002B18D00B7892
:100B90009B00C3181A88520606D51A884E4C14407A
:100BA0004E4A224392B21A800B789B00C0180388E9
:100BB0004B4A1A404B4B13439BB20380002010BD9D
:100BC0000B789B00C3181A88520406D51A88424C29
:100BD0001440454A224392B21A800B789B00C018F9
:100BE0000388424A1A403F4B13439BB20380E5E718
:100BF0004B78002B37D10B789B00C3181A8852040E
:100C000006D51A88344C1440374A224392B21A80CF
:100C10000B789B00C3181A88520606D51A882E4CEA
:100C200014402E4A224392B21A800B789B00C318BC
:100C30001A88294C1440294A224392B21A800C780F
:100C4000A40004192388294A1340264A13439BB25F
:100C500023800B789B00C018038821490B401A435E
:100C600092B20280AAE70B789B00C3181A8852043C
:100C700006D51A88184C14401B4A224392B21A8097
:100C80000B789B00C3181A88520606D51A88124C96
:100C90001440124A224392B21A800B789B00C31868
:100CA0001A880D4C1440104A224392B21A800C78D4
:100CB000A400041923880A4A13400A4A13439BB22A
:100CC00023800B789B00C018038808490B401A4307
:100CD00092B2028072E7C0468F8FFFFFC080FFFF95
:100CE000BF8FFFFF8080FFFF80C0FFFF8FBFFFFF30
:100CF0004B78002B0ED10B789B00C01802880C4B50
:100D00001A4080235B015A400A4B13439BB2038075
:100D1000002070470B789B00C0180388064A1340D8
:100D200010225A40034B13439BB20380F0E7C046A6
:100D30008FBFFFFF8080FFFFBF8FFFFF10B50B7BD2
:100D4000002B39D14B78002B1CD00B789B00C3189B
:100D50001A88520606D51A88184C1440184A22439D
:100D600092B21A80CB78012B26D00B789B00C0184A
:100D70000388144A134020225A40134B13439BB25A
:100D8000038019E00B789B00C3181A88520406D51B
:100D90001A880A4C14400D4A224392B21A800B78EA
:100DA0009B00C01802880A4B1A40C0239B015A407E
:100DB000054B13439BB20380002010BD8F8FFFFFB4
:100DC000C080FFFFBF8FFFFF8080FFFF80C0FFFF5D
:100DD0008FBFFFFF002902D14C238022C252002086
:100DE000704700005822835A02490B439BB283523A
:100DF000002070470080FFFF4423C05A80B2704734
:100E00000020704710B501335B0812188020C00025
:100E10008446624407E008784C7824020443148036
:100E200002320231013B002BF5D110BD70B5050037
:100E30000C00497801292BD0A26923699A4200D875
:100E4000D8E0D21AA261227B002A00D0E9E0503219
:100E5000A95A69182278D2005218A0498C466244D7
:100E6000002B00D0CAE013889D4919409D4B0B43CD
:100E7000138023789B00ED182A889B4B1A40C023CF
:100E80009B015A40994B13439BB22B80002070BDAD
:100E9000A26923699A421DD9D21AA261227B002A33
:100EA0001CD02278900028180088400664D50029BC
:100EB00039D15031695A6918D200521887498C4685
:100EC0006244002B1CD111888548084085490143A4
:100ED000118031E00023A3611300DFE79EB2E288B6
:100EE000330061692800FFF78DFF5023EA5AAA18E2
:100EF0002378DB009B187E4A944663441E802EE0D4
:100F00003E2B06D85908D80700D501318902118037
:100F100012E05909D80600D10139890289B2714815
:100F20000143118008E05021695A6918D200521813
:100F30006A498C466244138062899BB261692800C9
:100F4000FFF760FF6378002B47D123789B00EB18F5
:100F50001A8868491140684A0A4392B21A80237875
:100F60009B00ED182B88654A134030225A405F4B96
:100F700013439BB22B8089E7002923D15031695A52
:100F80006918D20052185A498C466244002B06D187
:100F90001188534808405349014311801BE03E2B00
:100FA00006D85908D80700D501318902118012E00E
:100FB0005909D80600D10139890289B2494801434B
:100FC000118008E05021695A6918D2005218484926
:100FD0008C46624413802289AFE7012BBFD123786E
:100FE0009B00EB181A8843491140454A0A4392B2C4
:100FF0001A80B4E70023A361130024E73E2B06D830
:101000005908DB0700D501318902118031E7590900
:10101000DB0600D10139890289B2324B19431180B4
:1010200027E7002910D15022A95A69182278D20046
:1010300052182F498C466244002B1AD11188284837
:1010400008402849014311806278002A37D1503284
:10105000A95A69182278D200521820498C46624455
:10106000002B19D113881E4919401E4B0B431380C6
:10107000FFE63E2B06D85908D80700D50131890272
:101080001180E1E75909D80600D10139890289B2F6
:10109000144801431180D7E73E2B06D85908DB07D7
:1010A00000D5013189021180E3E65909DB0600D140
:1010B0000139890289B20B4B19431180D9E6012A03
:1010C00000D0D6E64F32A95A69182278D2005218B9
:1010D00002498C4662441380CBE6C04606040000F9
:1010E000FF83FFFF0080FFFF8FBFFFFF8080FFFFB8
:1010F000020400008F8FFFFFC080FFFFBF8FFFFF44
:1011000080C0FFFF30B55D0812188020C000844603
:10111000624407E01488A4B202320C70240A4C70B6
:101120000231013D002DF5D1DB0701D513880B708D
:1011300030BD000030B583B0040000230193036884
:10114000996803220A40012A0ED09968204A114268
:1011500012D19A6801210A439A601E4B18681E49F1
:10116000FEF7D2FF019015E01A68D2072DD4DA6895
:101170001204EAD5002008E0A36B10221343A363F6
:10118000E36B0F3A1343E363012003B030BD019BCF
:10119000013B0193019B002BF9D100F09FFE05005C
:1011A00023681B68DB070ED400F098FE401B022862
:1011B000F6D9A36B10221343A363E36B0F3A1343D7
:1011C000E3630120E1E70020DFE70020DDE7C04620
:1011D00017000080FC00002040420F0070B5041E84
:1011E00000D1B1E0836B002B7ED0A36BDB0600D572
:1011F000A4E021688B6804221A4000D09EE0A36B13
:10120000524803400630FF300343A363886803233A
:101210000340012B6ED0CB6818208343A0680343A2
:10122000CB6021680B699B009B08606803430B61DE
:101230002168CB6846480340CB60237E9B03617ED8
:10124000C9030B43A17E48030343A06A012858D079
:10125000802040010343E06803432069022852D004
:1012600013432422A25C52001343E27E012A4CD095
:10127000E269C221FF318A4202D0216A0A43134344
:101280002168CA681A43CA60E26A802149058A4215
:101290000DD0012A0BD0022A09D0032A07D0042A34
:1012A00005D0052A03D0062A01D0072A0AD12068D2
:1012B000416907229143416120684169E56A2A40FA
:1012C0000A4342612268D26822490A409A422BD0DE
:1012D000A36B12229343023A1343A363E36B0F3AC7
:1012E0001343E36301202EE0C36334228354FFF7EA
:1012F0003BFA7AE70B68DB079AD4CB681B0497D4D8
:1013000089E71000A6E70422AAE7002903D180227A
:1013100052021343ACE7A26B20210A43A263E26BA3
:101320001F390A43E263A3E70023E363A36B0322AD
:101330009343023A1343A363002004E0A36B1022FB
:101340001343A363012070BD0120FCE7FDFEFFFFF6
:101350001902FEFFE7FF3F83F8B504000E001700F7
:1013600003689B685B073ED43423C35C012B3CD0ED
:1013700034230122C254437E012B32D0FFF7DAFE20
:10138000051E2CD1A36B1A4A1A4080235B0013431D
:10139000A3630023E3633422A354236B154A9A62A8
:1013A000236B154ADA62236B144A1A6323681C22E2
:1013B0001A602268536810210B4353602268D36877
:1013C0000F390B43D360216840313B003200206B62
:1013D00000F0C0FE2268936804210B43936028004C
:1013E000F8BD0025CEE70225F9E70225F7E7C0465C
:1013F000FEF0FFFF051400087714000883140008AE
:101400007047000010B5436A9A6B5021114203D017
:101410001B6B1B6B984710BD996B802292000A438F
:101420009A631A68D068C0210901084213D1997ED5
:10143000002910D1116809070DD5916849070ED40C
:1014400051680C20814351609A6B09490A4004316C
:10145000FF310A439A631800FFF7D2FFDBE79A6B6C
:1014600020210A439A63DA6B1F390A43DA63F2E7F1
:10147000FEFEFFFF704710B5406AFFF7FBFF10BD8F
:10148000704710B5406A836B402213438363C36B7C
:101490003C3A1343C363FFF7F3FF10BD30B583B08D
:1014A0000400002301933433C35C012B00D18AE094
:1014B00034230122C25403689A68520775D4434A00
:1014C0004868904256D09A6A01200D68A8400243AD
:1014D0009A62E36A8022520593421ED0012B1CD0EF
:1014E000022B1AD0032B18D0042B16D0052B14D0A6
:1014F000062B12D0072B10D0226850690723034017
:101500008868984209D05069072398435061206841
:1015100042698D682B40134343610B681A00103AEF
:10152000022A4CD82A4A1268102B0ED0112B09D04F
:1015300080235B041343264A13600B68102B07D0EB
:10154000002037E08023DB03F4E780231B04F1E76E
:10155000204B18682049FEF7D7FD83001818430078
:10156000019302E0019B013B0193019B002BF9D108
:1015700000201FE09A6A01200D68A84082439A6209
:101580000B681A00103A022A1BD8114A1268102B55
:1015900009D0112B05D0114B13400D4A13600020C8
:1015A00008E00F4BF8E70F4BF6E7836B202213435D
:1015B0008363012034230022E25403B030BD0020B5
:1015C000F8E70020F6E70220F7E7C0460110000028
:1015D00008270140FC00002040420F00FFFFFFFEF3
:1015E000FFFFBFFFFFFF7FFF70B582B0041E00D179
:1015F00085E20368DB072BD5B34B5A680C231340F5
:10160000042B1DD0B04B5A680C231340082B0ED06E
:101610006368012B41D0002B56D1AB4B1A68AB4904
:101620000A401A601A68AA490A401A603BE0A64BB1
:101630005B68C02252021340802252029342E7D1DB
:10164000A14B1B689B0303D56368002B00D159E2B3
:1016500023689B0778D59C4B5B680C221A4262D0AA
:10166000994B5A680C231340082B53D0E368002B86
:1016700000D18BE0944A136801210B43136000F002
:101680002DFC0500904B1B689B0776D400F026FCD0
:10169000401B0228F6D9032032E28B4A11688023CE
:1016A0005B020B4313606368002B25D000F016FC2F
:1016B0000500854B1B689B03CAD400F00FFC401B40
:1016C0006428F6D903201BE2052B09D07E4B1A684B
:1016D0007E490A401A601A687D490A401A60E2E7AA
:1016E000794B19688022D2020A431A601968802255
:1016F00052020A431A60D6E700F0F0FB0500724B75
:101700001B689B03A4D500F0E9FB401B6428F6D9B5
:101710000320F5E16C4B5B68C0225202134080222B
:1017200012029342A2D1684B1B689B0704D5E36861
:10173000012B01D00120E3E163490B68F8229343B8
:101740002269D20013430B6023681B0744D5E36969
:10175000002B2ED05C4A536A01210B43536200F0E8
:10176000BDFB0500584B5B6A9B0735D400F0B6FB08
:10177000401B0228F6D90320C2E153490B68F82226
:1017800093432269D20013430B60DDE74E4A13688E
:1017900001218B43136000F0A1FB05004A4B1B683D
:1017A0009B07D1D500F09AFB401B0228F6D90320F5
:1017B000A6E1454A536A01218B43536200F08EFB38
:1017C0000500414B5B6A9B0706D500F087FB401B79
:1017D0000228F6D9032093E123685B0700D47FE059
:1017E000394BDB69DB001DD4374AD16980204005C5
:1017F0000143D161D36903400193019B0125354B1E
:101800001B68DB0510D5A368012B21D0002B36D136
:101810002D4B1A6A01218A431A621A6A03318A43DC
:101820001A621AE00025EAE72A4A116880235B0061
:101830000B43136000F052FB0600264B1B68DB05D0
:10184000E1D400F04BFB801B6428F6D9032057E15C
:101850001D4A136A01210B431362A368002B24D095
:1018600000F03CFB0600184B1B6A9B0736D400F0C7
:1018700035FB801B184B9842F5D9032040E1052B1E
:1018800009D0114B1A6A01218A431A621A6A03317C
:101890008A431A62E1E70C4B1A6A04210A431A626E
:1018A0001A6A03390A431A62D7E700F017FB0600E9
:1018B000054B1B6A9B0711D500F010FB801B064BE4
:1018C0009842F5D903201BE100100240FFFFFEFF04
:1018D000FFFFFBFF0070004088130000012D3AD08D
:1018E0002368DB0610D56369012B3AD0053358D144
:1018F000884A536B04218B435363536BF4318B43FE
:10190000A169C9000B43536323689B0600D482E09E
:10191000804B5A680C2313400C2B60D07D4B5A68C7
:101920000C231340082B53D0236A002B60D0794A34
:10193000516B80235B020B43536300F0CFFA050029
:10194000744B5B6BDB0366D400F0C8FA401B0228C3
:10195000F6D90320D4E06F4AD3696F490B40D361B5
:10196000BEE76C4B5A6B04210A435A635A6B033926
:101970000A435A6300F0B2FA0500664B5B6B9B07A3
:1019800006D400F0ABFA401B0228F6D90320B7E0DA
:1019900060494B6BF8229343A269D20013434B6317
:1019A000B2E75C4B5A6B04210A435A635A6B033902
:1019B0008A435A6300F092FA0500564B5B6B9B0713
:1019C000A2D500F08BFA401B0228F6D9032097E03D
:1019D000504B5B68C022520213409342A4D14D4B3E
:1019E0005B6BDB0317D5236A012B14D0012087E042
:1019F000484A536B49490B40536300F06FFA0500A6
:101A0000444B5B6BDB0306D500F068FA401B0228F1
:101A1000F6D9032074E0636A002B00D174E03D4ADC
:101A200051680C220A40082A4DD0022B12D0394AA4
:101A300013683B490B40136000F050FA0400354B2B
:101A40001B689B013DD500F049FA001B0228F6D91E
:101A5000032055E02F4A136831490B40136000F012
:101A60003DFA05002B4B1B689B0106D500F036FAAA
:101A7000401B0228F6D9032042E0264BDA6A0F21E8
:101A80008A43216B0A43DA625A6826490A40E16AAE
:101A9000A06A01430A435A601968802252040A432B
:101AA0001A6000F01BFA04001A4B1B689B0106D455
:101AB00000F014FA001B0228F6D9032020E00020D1
:101AC0001EE000201CE0012B20D0124B5A68D96A7E
:101AD000C0235B021340A06A834201D001200FE0C3
:101AE0000F230B40216B8B4201D0012008E0F02333
:101AF0009B031A40E36A9A420AD0012000E00120C9
:101B000002B070BD0120FBE70020F9E70120F7E7F4
:101B10000020F5E700100240FFFFFFEFFFFFFEFF90
:101B2000FFFFFFFEFF7FC2FF30B589B004AA1F4B45
:101B3000180032C832C2110002680A606A461033C7
:101B400013CB13C21B681360194B5A680C23134044
:101B5000082B04D00C2B26D0164809B030BD910CB0
:101B60000F23194004A8445C1149C96A0B40694617
:101B7000C95CC0235B021A4080235B029A4208D0F2
:101B8000C0235B029A4209D00A48FEF7BDFA6043BF
:101B9000E3E70848FEF7B8FA6043DEE70648FEF7D9
:101BA000B3FA6043D9E70448D7E7C046EC3C0008E5
:101BB0000010024000127A00006CDC0270B50400D4
:101BC0000D00002800D189E0464B1A68012313401C
:101BD0008B420BD243490B68012293432B430B608A
:101BE0000B681A40AA4201D0012078E023689A07C6
:101BF0000ED55B0705D53C4A5168E023DB000B435B
:101C00005360394A5368F0218B43A1680B435360FA
:101C10002368DB0735D56368012B09D0022B24D05C
:101C2000032B28D0304A1268920705D4012056E0D1
:101C30002D4A1268920353D52B494A6803208243E8
:101C400013434B6000F04AF90600274B5B680C22F7
:101C50001A4063689B009A4213D000F03FF9801B42
:101C6000224B9842F1D9032039E01F4A12689201B1
:101C7000E2D4012033E01C4A526BD203DCD40120B1
:101C80002DE0184B1A6801231340AB420BD91549BC
:101C90000B68012293432B430B600B681A40AA4246
:101CA00001D001201BE023685B0706D50E4A53686C
:101CB0000F490B40E1680B435360FFF735FF0A4BB8
:101CC0005A6812090F2313400A4AD35CD8400A4BC2
:101CD0001860002000F0BEF8002000E0012070BD78
:101CE0000120FCE7002002400010024088130000A1
:101CF000FFF8FFFF383E0008FC00002070B582B0FE
:101D000004000368DB0335D54B4BDB69DB0066D48D
:101D1000494AD169802040050143D161D36903401C
:101D20000193019B0125454B1B68DB0559D5424BAF
:101D30001B6AC0229200134013D061680A409A4285
:101D40000FD03D4B186A3E4A02401E6A802149026C
:101D500031431962196A3B4E314019621A62C30756
:101D600053D4354A136A36490B4061680B431362FA
:101D7000012D59D02368DB0706D52F4A136B0321A9
:101D80008B43A1680B43136323689B0706D52A4A3C
:101D9000136B2D490B40E1680B43136323689B06CB
:101DA00006D5254A136B10218B4321690B4313631E
:101DB00023689B0306D5204A136B80218B43A169BE
:101DC0000B43136323685B0533D51B4A136B402118
:101DD0008B4361690B431363002002B070BD002583
:101DE000A1E7164A116880235B000B43136000F0E3
:101DF00075F80600114B1B68DB0598D400F06EF8EF
:101E0000801B6428F6D90320E7E700F067F8060096
:101E1000094B1B6A9B07A4D400F060F8801B0B4B96
:101E20009842F5D90320D8E7D36909490B40D3611B
:101E3000A0E70020D1E7C04600100240007000403B
:101E4000FFFCFFFFFFFFFEFFFFFFFCFF881300000A
:101E5000FFFFFFEF10B504000F4B1978FA20800048
:101E6000FEF752F901000D4B1868FEF74DF900F02E
:101E70003FFA00280DD1032C01D901200AE00130DE
:101E800000222100404200F0F5F9054B1C600020C3
:101E900000E0012010BDC04604000020FC0000202E
:101EA0000800002010B5064A136810210B43136088
:101EB0000020FFF7CFFFFEF73FFC002010BDC0461B
:101EC00000200240034A1168034B1B785B18136023
:101ED0007047C046C404002004000020014B18686D
:101EE0007047C046C404002070B50400FFF7F6FF39
:101EF0000500631C02D0044B1B78E418FFF7EEFFCB
:101F0000401BA042FAD370BD04000020F0B5C646C5
:101F100000B582B0002338E0042600E00026AE4081
:101F200035003D430234A400574EA551574C256857
:101F30004246D4432E0026404A68D20302D5424688
:101F400015432E00514D2E606D682E0026404A68C4
:101F5000920302D5424615432E004C4D6E60AD688B
:101F60002E0026404A68D20202D5424615432E0072
:101F7000464DAE60ED682C404A68920202D542465A
:101F80002A431400414AD46001330A681400DC403B
:101F900076D001259D402A409046F5D04C68022C11
:101FA00001D0122C0ED1DC080834A40027580726D3
:101FB0001E40B6000F22B24097430A69B240160095
:101FC0003E43265002685F0003242600BE40F643CD
:101FD000324094464A681440BC4062461443046050
:101FE0004C68621E012A03D9112C01D0122C10D189
:101FF00084683440A446CC68BC4062461443846084
:102000004468AC434A681209012515409D402543A8
:102010004560C46826408C68BC403443C4604A684C
:10202000D200B1D51A4DAE6901242643AE61AD6927
:102030002C400194019C9C08A51CAD00124EAF5988
:1020400003261E40B5000F26AE40B7439026F60586
:10205000B04200D162E70F4EB0420BD00E4EB042FC
:102060000AD00E4EB04209D00D4EB04200D153E717
:10207000052654E7012652E7022650E703264EE7DD
:1020800002B004BC9046F0BD0000014000040140D5
:10209000001002400004004800080048000C0048FE
:1020A00000100048002A01D1816270478161FCE77D
:1020B00070B5C56B0124066CB4406C600468636045
:1020C0004368102B04D0036899600368DA6070BD20
:1020D00003689A600368D960F9E7000010B504004E
:1020E0000368064A9446634418001421FEF70CF86E
:1020F00080002064024BE36310BDC046F8FFFDBFC3
:102100000000024070B5041E20D021250223435553
:1021100001680B680E4A1A40436880680343E06810
:1021200003432069034360690343A0690343E069F3
:10213000034313430B602000FFF7D0FF0023A3638A
:10214000012262551F32A354002070BD0120FCE71C
:102150000FC0FFFF70B504002020205C012832D0A2
:102160002020012525540130205C012804D02023A3
:102170000022E254022070BD203001352554002099
:10218000A063256828680126B04328602000FFF777
:102190008FFFE36A002B0BD0226813680E210B43DC
:1021A00013602268136801210B4313600020E2E7EB
:1021B000226813680A210B431360226813680639EA
:1021C0008B431360EDE70220D5E770B5C36B1A6847
:1021D00004682568016C04238B401A4212D06B07F7
:1021E00010D523689B0603D42368042293432360FD
:1021F000C26B0423016C8B405360C36A002B00D078
:10220000984770BD02238B401A4218D0AB0716D5F1
:1022100023689B0606D423680A2293432360212364
:10222000093AC254C26B0223016C8B4053602023D5
:102230000022C254836A002BE3D09847E1E70823C9
:102240008B401A42DDD02B07DBD523680E22934347
:102250002360C26B01231900046CA14051608363A9
:10226000212283541F330022C254036B002BC8D099
:102270009847C6E770B5002811DB8308144DC033BA
:102280009B005C5903221040C000FC3216008640BF
:10229000B44389010A40824022435A5170BDC0B202
:1022A0000F230340083B9B0806339B00094A9446D2
:1022B00063445D6803242040C000FF221400844072
:1022C000A54389011140814029435960E6E7C04692
:1022D00000E100E000ED00E0002805DB1F231840CE
:1022E0001E3B8340014A13607047C04600E100E096
:1022F00001380A4B98420FD8094A50600948036ACE
:102300001B021B0AC02109060B43036200239360D2
:1023100007331360002070470120FCE7FFFFFF0038
:1023200010E000E000ED00E030B587B0041E61D0A1
:10233000314BC35C002B07D02F4B0322E2542068A3
:10234000FEF77EFA00231AE08A239B000022C25483
:1023500000F0A0FCF0E75A01A21811002931012079
:10236000087001390B70D38610002B3000210170EA
:102370009163D1639A1C520111510133DBB2606841
:102380008342E8D3002215E05301E3181D002A35EB
:10239000FF3500212970013D2A70033529700D3564
:1023A00029603D33FF33196013000A335B01195173
:1023B0000132D2B29042E7D86A462300103323CBD1
:1023C00023C203CB03C26168A268E3682068FEF7FA
:1023D00041FA24230022E254074B0132E254E3691C
:1023E000012B02D0002007B030BD200000F027FCF8
:1023F0000020F8E70120F6E72902000070B504008C
:102400008A239B00C35C012B0DD08A25AD000123DC
:1024100043550068FEF7E6FC2068FEF707FA002344
:102420006355002070BD0220FCE770B504008A23CC
:102430009B00C35C012B0CD08A25AD0001234355C2
:102440002333C1540068FEF7C5FC00236355002008
:1024500070BD0220FCE770B5050048B2002827DBFC
:1024600007240C40640120002930FF3028182C1963
:102470002A34FF34002626700724214001700261AF
:10248000C3704278002A00D0C181022B1BD08A235E
:102490009B00EB5C012B19D08A24A40001232B554F
:1024A00001002868FEF7ECF900232B55002070BDD1
:1024B00007240C4064012000283028182C192934E6
:1024C00001262670D8E700230371E0E70220EEE73B
:1024D00070B504004BB2002B1FDB07230B405B01E0
:1024E0001A002932FF328218C3182A33FF33002022
:1024F00018700723194011708A239B00E35C012B9D
:1025000016D08A25AD000123635511002068FEF71F
:1025100037FB00236355002070BD07230B405B0190
:102520001A0028328218C318293301201870E0E7F6
:102530000220F1E770B507250D406C01210029311B
:10254000FF314118041926003D36FF3632602A005B
:102550000A325201135082180023536022002A329B
:10256000FF3213702934FF342570002D04D0006829
:10257000FEF75CFC002070BD0068FEF757FCF9E731
:102580000B00072119400A31490140184068704783
:1025900070B507250D406C01210028314118041940
:1025A000E263AA1C520113508218002353602300D7
:1025B000293301221A7028342570002D04D00068B8
:1025C000FEF734FC002070BD0068FEF72FFCF9E731
:1025D000F0B5C64600B5050028684423C35A1BB2AF
:1025E000002B00DBAAE14423C35A9BB20F241C40FA
:1025F00000D0BCE0DB0651D503889BB21A0500D59C
:102600007FE01BB2002BE7DA0388CE4A134080221A
:102610001343038028685023C35A94225200AA5CB3
:10262000D2009B181B18C84A944663441B889B051C
:102630009B0D2A002932FF32D361002B0FD0516944
:1026400000290CD01400D288FEF75CFD6369E269B2
:102650009446634463610021280000F046FB2B6828
:1026600050229A5A9B18B84A944663442A00293249
:10267000FF321269002A67D11A88B4491140B44A5E
:102680000A431A8029680A88B24B1A40C0239B016A
:102690005A40B14B13439BB20B809DE70388AF4A6E
:1026A0001A40AB4B13439BB2038029685023CB5A8B
:1026B0002822AA5CD2009B185B18A94A944663445E
:1026C0001B889B059B0D6B64EA6B94466344EB632C
:1026D0000021280000F016FB2423EB5C002B00D126
:1026E0007AE72B6C002B00D076E72422AB5C8021AC
:1026F00049420B43DBB2CC31286843520023AB5430
:102700006AE75023C35A94225200AA5CD2009B1855
:102710001B188D4A944663441B889B059B0D2A0019
:102720002932FF32D3618C2189006918D288FEF7E3
:10273000E9FC2A68138883490B4080210B431380EE
:10274000280000F0C7FA47E73E2A06D85108D2070A
:1027500000D501318902198094E75109D20600D1D0
:102760000139890289B27A4A114319808AE7A300A4
:10277000984640440688B6B233B2002B30DB3306AD
:1027800000D429E72B6843441A001B887349194079
:102790006F4B0B439BB2138028685023C35A6101CF
:1027A00069180A0028321278D2009B181B186C4A4C
:1027B000944663441A889205920DA31C5B01E818A5
:1027C0004260C86B84466244CA635B59002B00D0E8
:1027D000ACE00C0028342178280000F093FAFBE6E6
:1027E0000388584A13408022134303806301EB1887
:1027F0003533FF331B78002B1ED128685033C35A62
:102800006201AA182932FF321278D2009B181B18D5
:102810004D4A944663441F88BF05BF0D33D0630102
:10282000EB181A002F32FF3212883D33FF3319683C
:102830003B00FEF767FC26E028686301EB182933AC
:10284000FF331B789A008218128852044BD550220D
:10285000825ADB00D3181B18414A944663441F88F0
:10286000BF05BF0D32D16301EB182933FF331A784E
:1028700092002B689C46624413883A4919403A4BAF
:102880000B439BB21380390020000A3040012A1804
:102890005368DB1953606301EB183D33FF331A684B
:1028A000944667441F604359002B06D06201AA1862
:1028B0003932FF32126891422ED26301EB1829336C
:1028C000FF331978280000F010FA58E76301EB187D
:1028D0001A003132FF3212883D33FF3319683B0052
:1028E000FEF710FCBFE75022825ADB00D3181B18FA
:1028F000154A944663441F88BF05BF0DB3D06301DA
:10290000EB181A003332FF3212883D33FF33196857
:102910003B00FEF7F7FBA6E76201AA182932FF3257
:1029200011783A002800FFF705FE28E764012C190A
:10293000283421782800FFF72BFE4DE6002004BC48
:102940009046F0BD8F0F000006040000FF83FFFFDC
:102950000080FFFF8FBFFFFF8080FFFF0F8FFFFF13
:10296000020400008F8FFFFFC080FFFF70B50400DE
:102970000068FEF741FA030400D57BE02068FEF70B
:102980003BFA430500D579E02068FEF735FA4304A9
:1029900005D5216844228B5A584803408B52206841
:1029A000FEF72AFA830405D5216844228B5A54483D
:1029B00003408B522068FEF71FFAC30418D5216824
:1029C0004023CA5A04208243CA522168CA5A04309A
:1029D0008243CA5298239B00E35C012B5CD0200009
:1029E00000F0C0F9216844228B5A464803408B52BC
:1029F0002068FEF701FA030557D42068FEF7FCF9BA
:102A0000030626D5216844228B5A802083438B52AB
:102A100098239B00E35C002B62D121684033CA5AA3
:102A200004200243CA522168CA5A08200243CA52EB
:102A300098239B000122E25454232268D25A920820
:102A4000183B134099229200A3500121200000F06E
:102A500009F92068FEF7D0F9830545D42068FEF710
:102A6000CBF9C30505D5216844228B5A264803407B
:102A70008B5270BD2000FFF7ABFD7FE72168442239
:102A80008B5A224803408B52200000F04DF9002160
:102A90002000FFF7CAFC77E798239B000022E2544E
:102AA0000021200000F0DEF899E721684023CA5A8F
:102AB00008200243CA5220684421425A144D2A4039
:102AC00042522168CA5A04200243CA522068FEF7C3
:102AD00093F9C30400D590E7200000F031F98CE7AA
:102AE000200000F02DF9B4E7216844228B5A0948F0
:102AF00003408B52200000F010F9AFE7FFBFFFFF4B
:102B0000FFDFFFFFFFEFFFFFFFFEFFFFFFFBFFFF0A
:102B1000FFF7FFFFFFFDFFFF70B5050007240C4026
:102B200043689C4233D84BB2002B20DB4B01190089
:102B30002931FF314118C3182A33FF3300221A709C
:102B400001238B700C708A239B00EB5C012B20D03F
:102B50008A239B000122EA542868FEF7C9F8002C5A
:102B60000ED08A239B000022EA54002010E063016B
:102B7000190028314118C318293301221A70DFE7E0
:102B80008C239B00E9182868FEF73AF9E9E7012051
:102B900070BD0220FCE770B504000F230B404268B3
:102BA00093422FD84BB2002B21DB07230B405B0154
:102BB0001A002932FF328218C3182A33FF3300204B
:102BC0001870002393700733194011708A239B00FB
:102BD000E35C012B18D08A25AD0001236355110059
:102BE0002068FEF7ABF80023635500200BE00723B5
:102BF0000B405B011A0028328218C31829330120C8
:102C00001870DEE7012070BD0220FCE710B50C064D
:102C10000DD507242140490128314018002A0BD046
:102C20000122027303811B0C4381002010BD490166
:102C30002931FF314018F1E70273C380F5E70268DC
:102C40009A239B000121C150083B0021C154542309
:102C5000D15A01200143D152D15A02200143D1520D
:102C6000002070477047000010B5074C002207494C
:102C7000200000F0A3FA0649200000F0BBFA200073
:102C800000F0C1FA10BDC046C80400200C000020AE
:102C90008800002000B583B002680C4B9A4201D036
:102CA00003B000BD0A4AD169802000040143D1610C
:102CB000D36903400193019B002201211F20FFF7EC
:102CC000D9FA1F20FFF708FBEAE7C046005C004086
:102CD0000010024010B501009C239B00C058403BEF
:102CE0009C46614400F0ACFA10BD10B503009C2274
:102CF000920080584A019B183D33FF331A6800F058
:102D0000D3FA10BD10B503009C22920080584A01EE
:102D10009B18DA6B00F004FB10BD10B59C239B00E0
:102D2000C05800F096FB10BD70B505009C24A400AF
:102D30000121005900F078FB285900F052FB70BDCA
:102D400010B504009C239B00C05800F070FBA369E1
:102D5000002B04D0024A136906210B43136110BDF6
:102D600000ED00E010B59C239B00C05800F06AFB0A
:102D700010BD000070B504001B489C239B00C4508C
:102D80008825AD006051194B03600823436002227F
:102D900082600023C36002618361C3610362FFF745
:102DA000C3FA1823002200216059FFF72FFF582390
:102DB000002280216059FFF729FFC02300228121D2
:102DC0006059FFF723FF88235B000022012160592F
:102DD000FFF71CFF605980235B0000228221FFF770
:102DE00015FF002070BDC04600020020005C0040BE
:102DF00010B588239B00C058FFF700FB002803D0C4
:102E0000022803D0022010BD0020FCE70120FAE7D1
:102E100010B514001A0088239B00C0582300FFF748
:102E20001AFB002803D0022803D0022010BD002086
:102E3000FCE70120FAE710B588239B00C058FFF794
:102E400047FB002803D0022803D0022010BD002039
:102E5000FCE70120FAE710B588239B00C058FFF774
:102E60005BFE002803D0022803D0022010BD002002
:102E7000FCE70120FAE710B588239B00C058FFF754
:102E80008AFE002803D0022803D0022010BD0020B3
:102E9000FCE70120FAE70A0088239B00C35849B2E7
:102EA000002907DB7F21114049015B182B33FF33D9
:102EB000187870477F21114049015B182A33187830
:102EC000F7E710B588239B00C058FFF7AEFA00283B
:102ED00003D0022803D0022010BD0020FCE701200F
:102EE000FAE710B58824A4000059FFF751FB002829
:102EF00003D0022803D0022010BD0020FCE70120EF
:102F0000FAE710B58824A4000059FFF713FB002846
:102F100003D0022803D0022010BD0020FCE70120CE
:102F2000FAE710B588239B00C058FFF729FB10BDB6
:102F300012230B80004870472800002004230B80D8
:102F4000004870473C00002010B50A00002805D05A
:102F50000549064800F02BFD034810BD024903480F
:102F600000F025FDF8E7C046EC060020BC3D000857
:102F700010B50A00034C2100034800F018FD2000A2
:102F800010BDC046EC060020A83D000810B50A00A0
:102F9000002805D00549064800F009FD034810BD8A
:102FA0000249034800F003FDF8E7C046EC060020A4
:102FB000C83D000810B50A00002805D0054906489C
:102FC00000F0F5FC034810BD0249034800F0EFFC97
:102FD000F8E7C046EC0600208C3D000810B50A005A
:102FE000002805D00549064800F0E1FC034810BD63
:102FF0000249034800F0DBFCF8E7C046EC0600207D
:10300000983D00082223038000487047C00000203C
:1030100086239B00C35800221A73002070470000CB
:103020000A23038000487047F000002010B5862373
:103030009B00C4580A78B93BFF3B134024D0202B97
:1030400052D14B78032B10D007D90A2B13D00B2B5E
:1030500016D18B782360002047E0022B10D1211D70
:10306000012200F0C2FC00203FE00122210000F01C
:10307000BCFC002039E04B881B0A6360002034E070
:1030800000F026FA022030E04B780A2B21D00B2BDF
:1030900026D0062B01D0002027E04B881B0A222BCC
:1030A00007D0212B0DD00021002200F09EFC002033
:1030B0001BE0CB881A1C482B00D9482292B20B493E
:1030C000F3E7CB881A1C092B00D9092292B20849D0
:1030D000EBE721000831012200F087FC002004E02A
:1030E0008B78A360002000E0002010BD400000208D
:1030F000E400002010B504008121FFF79CFE0121AF
:103100002000FFF798FE86239B00E058002805D09A
:1031100000F0FAFC86239B000022E250002010BD44
:1031200010B50400102303228121FFF771FE102047
:1031300000F0E0FC86239B00E050002803D0002331
:103140000373002010BD0120FCE770B58624A400A5
:1031500005591C3C045D032C01D0002070BD2B7B65
:10316000002BFAD101332B7313000A008121FFF7E2
:10317000B8FEF2E770470000F8B506000C4A136885
:1031800001331360FFF7CDFE05000A4C0A4F020021
:103190003900200000F0C2FC08233A000121300071
:1031A000FFF7AFFE29002000FFF7E4FF0020F8BD85
:1031B000F4080020F8080020EC08002010B50028D2
:1031C00016D085239B00C358002B03D085239B007A
:1031D0000024C450002902D084239B00C150FE2348
:1031E0005B000121C1540270FFF7C4FD002010BD37
:1031F0000220FCE7002904D085239B00C150002059
:1032000070470220FCE710B5FFF7F2FD002010BD6B
:1032100010B585239B00C358002B07D01B68984727
:10322000002801D1002010BD0220FCE70220FAE7AF
:1032300010B585239B00C3585B689847002010BDDC
:1032400070B5040082239B00C518280000F02CF9FB
:10325000FA235B000122E250124BE25A163BE25085
:103260001033E15CEA3BFF3B0B40012B0FD0002BFE
:1032700007D0022B10D07F2399432000FFF7EBFDEE
:1032800003E02900200000F0B3FA002070BD2900FF
:10329000200000F0D1FAF8E72900200000F0EBFA56
:1032A000F3E7C0460E02000010B504001300002929
:1032B00029D1FA2252008258032A01D0002010BDE1
:1032C000421DFF329168D26891420FD885239B003E
:1032D000C3581B69002B05D0FE225200825C032AD2
:1032E00000D19847200000F09EFBE7E7891A0530DF
:1032F000FF3081608A4200D90A0092B21900200092
:1033000000F089FBDAE785239B00C3589B69002BFB
:10331000D4D0FE225200825C032ACFD19847CDE759
:1033200070B50400130000294ED1FA2252008258D1
:10333000022A06D080239B00E35C012B3FD00020B3
:1033400070BDC269056AAA421ED88669290030008C
:10335000FCF760FF002906D1B54204D8FC235B00CE
:10336000E3589E421DD385239B00E358DB68002B66
:1033700006D0FE225200A25C032A01D12000984709
:10338000200000F05CFBD5E7521BC26192B219002D
:1033900000F039FB0023002200212000FFF7B1FDDF
:1033A000C8E70022200000F02EFBFC235B00002277
:1033B000E250002300212000FFF7A3FDBAE780239D
:1033C0009B000022E254BAE785239B00C3585B6947
:1033D000002BB4D0FE225200825C032AAFD1984762
:1033E000ADE770B50400402300220021FFF710FD77
:1033F000402588235B00E550D03B0022802120003F
:10340000FFF706FD2562FE235B000122E2541C3318
:10341000E358002B06D085239B00E3585B68217995
:1034200020009847002070BD017400207047FE23E3
:103430005B00C15CFE22FF328154FA3AFF3AC2546B
:1034400000207047FE23FF33C25C013BC2540020C2
:10345000704710B5FE235B00C35C032B01D0002036
:1034600010BD85239B00C358DB69002BF7D098471C
:10347000F5E70300002002E00130C0B201331A7802
:10348000002AF9D1704710B504004B88012B0AD1EE
:1034900081239B000122C2501033C3589B68984778
:1034A000200000F0C0FA10BD0B7803704B78437019
:1034B0008B78CA7812029B1843800B794A791202E2
:1034C0009B1883808B79CA7912029B18C38070473E
:1034D00010B504008021FFF7BEFC00212000FFF79B
:1034E000BAFC10BD30B583B004000D004A88130A41
:1034F000072B00D98EE09B004F49CB589F46842371
:103500009B00C3581B68007C6A46911D98476B4618
:1035100006331B88002B03D0EA88002A00D07EE007
:1035200003B030BD037C002B09D185239B00C35819
:103530009B6A6A46901D984702234370E7E78523FC
:103540009B00C358DB6A6A46901D9847022343706C
:10355000DDE7D2B2052A39D89200384B9B589F46F6
:1035600084239B00C3585B68007C6A46911D984782
:10357000CDE784239B00C3589B68007C6A46911D5D
:103580009847C4E784239B00C358DB68007C6A46E5
:10359000911D9847BBE784239B00C3581B69007C9F
:1035A0006A46911D9847B2E784239B00C3585B6924
:1035B000007C6A46911D9847A9E784239B00C35865
:1035C0009B69007C6A46911D9847A0E72900FFF798
:1035D0007FFFA5E7037C002B07D185239B00C35801
:1035E0005B6B6A46901D984791E72900FFF770FFD3
:1035F00096E7037C002B09D185239B00C3581B6BE6
:103600006A46901D98470723437080E72900FFF71B
:103610005FFF85E729002000FFF75AFF80E7191CAC
:10362000934200D9111C8AB26B46D9800100200058
:1036300000F0DBF974E7C046D83D0008F83D00080B
:1036400070B504008B88002B22D1CB88002B1FD1B2
:103650008B787F251D40FE235B00C35C032B0FD0BE
:10366000FF235B00C5542900FFF72BFC200000F06E
:10367000DAF9002D07D0FE235B000222E2540AE0B3
:10368000FFF726FF07E0FE235B000122E25402E081
:103690002000FFF71DFF70BD70B504000D00897894
:1036A000284B197001290AD8FE235B00C35C022B4A
:1036B00009D0032B1ED02900FFF70AFF02E02900E2
:1036C000FFF706FF70BD002911D04160FE235B00AB
:1036D0000322C254FFF79CFD022803D0200000F013
:1036E000A2F9EFE729002000FFF7F2FEEAE700F079
:1036F0009AF9E7E7002911D0436899421ED0D9B260
:10370000FFF796FD0F4B197861602000FFF780FDF1
:1037100002280ED0200000F086F9D3E7FE235B00DC
:103720000222C2544160FFF783FD200000F07BF9C4
:10373000C8E729002000FFF7CBFEC3E700F073F9CC
:10374000C0E7C0468001002010B5CB88012B09D10D
:10375000FE235B00C35C022B07D0032B0DD0FFF7C9
:10376000B7FE01E0FFF7B4FE10BD00238360010047
:103770000831012200F039F9F6E7011D012200F0BD
:1037800034F9F1E710B5FE235B00C35C023BDBB20A
:10379000012B0ED80123C36081239B00C358002B4B
:1037A00001D00323C36001000C31022200F01DF997
:1037B00010BDFFF78DFEFBE710B50400FE235B0094
:1037C000C35C023BDBB2012B0ED84B88012B0AD124
:1037D00081239B000022C2501033C3589B68984736
:1037E000200000F020F910BDFFF772FEFBE700009B
:1037F00010B54B78092B19D89B000E4AD3589F4619
:10380000FFF770FE002010BDFFF71AFFFAE7FFF781
:1038100043FFF7E7FFF798FFF4E7FFF7B3FFF1E7A0
:10382000FFF731FEEEE7FFF7C7FFEBE7FFF750FECC
:10383000E8E7C046103E000870B504000D00FE2306
:103840005B00C35C032B13D10B79012B0DD88523AF
:103850009B00C3589B689847EB88002B01D0002041
:1038600070BD200000F0DFF8F9E7FFF731FEF6E762
:10387000FFF72EFEF3E770B505000C008A88D1B281
:10388000207860230340202B08D1F533FF33EB5819
:103890009B68210028009847002070BD6378012BA9
:1038A0002CD0002B52D0032BF6D1FA33FF33EB5C34
:1038B000022B06D0032B0CD021002800FFF708FEB6
:1038C000EAE70029E8D08029E6D02800FFF7C3FA0C
:1038D000E2E76388002B06D1002904D0802902D0BA
:1038E0002800FFF7B8FA85239B00EB589B6821005E
:1038F00028009847280000F096F8CDE7FE235B00EB
:10390000EB5C022B06D0032B0CD021002800FFF724
:10391000DFFDC1E70029BFD08029BDD02800FFF717
:103920009AFAB9E76388002BB6D14B0603D1280079
:1039300000F079F8B0E72800FFF79DFA85239B0097
:10394000EB589B68210028009847F0E7FE235B00B6
:10395000EB5C022B06D0032B0AD021002800FFF7D6
:10396000B7FD99E74B0697D02800FFF774FA93E765
:10397000130612D47F240C40103424012C19043473
:103980002800FFF788FA00280ED0012323600222C6
:103990002100280000F029F87EE77F240C40013444
:1039A00024012C190434EBE700232360EFE770B502
:1039B00004000D001600002816D0FFF75AFD013054
:1039C000400080B23080287003236B70013B08E018
:1039D00001345A1CD2B2E9540233DBB2AA180021D6
:1039E000117021780029F3D170BD10B51300FA22AF
:1039F0005200022484508361C3610A000021FFF752
:103A000070FA002010BD10B513000A000021FFF766
:103A100068FA002010BD10B513000A000021FFF75E
:103A200070FA002010BD10B5FA235B000422C250CA
:103A3000002300220021FFF754FA002010BD10B52A
:103A4000FA235B000522C250002300220021FFF769
:103A500058FA002010BD70470D4885460D480E49A4
:103A60000E4A002302E0D458C4500433C4188C42D8
:103A7000F9D30B4A0B4C002301E013600432A2423D
:103A8000FBD3FFF7E8FF00F011F8FCF74FFDFEE76E
:103A9000004000200000002064010020503E00088B
:103AA0006401002004090020FEE7000070B5002634
:103AB0000C4D0D4C641BA410A64209D1002600F049
:103AC00009F90A4D0A4C641BA410A64205D170BD29
:103AD000B300EB5898470136EEE7B300EB58984730
:103AE0000136F2E7483E0008483E0008483E00081C
:103AF0004C3E000810B5034B0100186800F06AF84E
:103B000010BDC0460001002010B5034B010018682D
:103B100000F016F810BDC04600010020002310B5CB
:103B20009A4200D110BDCC5CC4540133F8E70300C5
:103B30001218934200D1704719700133F9E7000061
:103B400070B50500002910D00C1F2368002B00DA87
:103B5000E418280000F0AEF81D4A1368002B05D1C8
:103B600063601460280000F0A6F870BDA34209D974
:103B7000216860188342F3D118685B68411821609E
:103B8000EEE713005A68002A01D0A242F9D9196859
:103B90005818A0420BD120680918581819608242A1
:103BA000E0D110685268411819605A60DAE7A04203
:103BB00002D90C232B60D5E721686018824203D11B
:103BC000106852684118216062605C60CAE7C046B4
:103BD00084010020032370B5CD1C9D4308350600E9
:103BE0000C2D1ED20C25A9421DD8300000F062F821
:103BF000254A14682100002919D1244C2368002B80
:103C000003D1300000F044F820602900300000F0BB
:103C10003FF8431C2BD10C233000336000F04BF8ED
:103C200003E0002DDFDA0C233360002070BD0B6849
:103C30005B1B19D40B2B03D90B60CC18256003E058
:103C40004B688C420DD11360300000F034F8200036
:103C500007220B30231D9043C31AE7D05A42E2508B
:103C6000E4E763600C00EFE70C004968C3E7032357
:103C7000C41C9C43A042E1D0211A300000F008F897
:103C8000431CDBD1C7E7C046840100208801002027
:103C9000002370B5064C05000800236000F00CF806
:103CA000431C03D12368002B00D02B6070BDC0469D
:103CB0000009002070477047044A1368002B00D1A8
:103CC000034B1818106018007047C0468C01002084
:103CD00008090020F8B5C046F8BC08BC9E467047ED
:0C3CE000F8B5C046F8BC08BC9E46704712
:103CEC0002030405060708090A0B0C0D0E0F101031
:103CFC000102030405060708090A0B0C0D0E0F1030
:103D0C0000000000000000002A2B2800000000002A
:103D1C000000000000000000000000000000000097
:103D2C002C9EB4A0A1A2A434A6A7A5AE362D3738DC
:103D3C00271E1F20212223242526B333B62EB7B8E5
:103D4C009F8485868788898A8B8C8D8E8F909192A3
:103D5C00939495969798999A9B9C9D2F3130A3ADEF
:103D6C00350405060708090A0B0C0D0E0F1011126D
:103D7C00131415161718191A1B1C1DAFB1B0B5006A
:103D8C0048494420436F6E666967000048494420E7
:103D9C00496E746572666163650000004F747465EA
:103DAC007220536369656E74696669630000000074
:103DBC00484944204469616C730000003030303055
:103DCC003030303030303141000000001436000803
:103DDC00FE3400082435000852350008143600085B
:103DEC0014360008D4350008F23500086035000898
:103DFC00723500088435000896350008A83500088F
:103E0C00BA3500081A380008263800082C38000883
:103E1C00203800082C380008083800080038000842
:103E2C002C380008143800080E3800080000000078
:0C3E3C0000000000010203040607080952
:043E4800E900000885
:043E4C00C1000008A9
:103E5000010000000100000004000000312F0008F4
:103E60003D2F0008712F0008492F00088D2F0008F2
:103E7000B52F0008DD2F00081201000202020040E9
:103E800009120100000201020301000004031104F1
:103E900005010906A1018501050719E029E71500BB
:103EA0002501750195088102950175088103950624
:103EB0007508150025650507190029658100C005ED
:103EC0000C0901A101850219002A3C021500263CBB
:103ED00002950175108100C021310008F5300008FD
:103EE0002D30000800000000000000001130000824
:103EF0007931000800000000000000000000000010
:103F000005300008053000080530000821300008A1
:103F100009022200010100E032090400000103014E
:103F20000100092111010001224800070581031049
:103F3000000A0000092111010001224800000000D0
:103F40000A060002000000400100000000127A0092
:103F5000040100200000000000000000000000003C
:103F60000000000000000000000000000000000051
:103F70000000000000000000000000000000000041
:103F80000000000000000000000000000000000031
:103F90000000000000000000000000000000000021
:103FA0000000000000000000000000000000000011
:043FB000000000000D
:0400000508003A595C
:00000001FF
